{
  "_format": "hh-sol-artifact-1",
  "contractName": "NexusExplorerBadge",
  "sourceName": "contracts/NexusExplorerBadge.sol",
  "abi": [
    {
      "inputs": [
        {
          "internalType": "address",
          "name": "initialOwner",
          "type": "address"
        }
      ],
      "stateMutability": "nonpayable",
      "type": "constructor"
    },
    {
      "inputs": [
        {
          "internalType": "address",
          "name": "sender",
          "type": "address"
        },
        {
          "internalType": "uint256",
          "name": "tokenId",
          "type": "uint256"
        },
        {
          "internalType": "address",
          "name": "owner",
          "type": "address"
        }
      ],
      "name": "ERC721IncorrectOwner",
      "type": "error"
    },
    {
      "inputs": [
        {
          "internalType": "address",
          "name": "operator",
          "type": "address"
        },
        {
          "internalType": "uint256",
          "name": "tokenId",
          "type": "uint256"
        }
      ],
      "name": "ERC721InsufficientApproval",
      "type": "error"
    },
    {
      "inputs": [
        {
          "internalType": "address",
          "name": "approver",
          "type": "address"
        }
      ],
      "name": "ERC721InvalidApprover",
      "type": "error"
    },
    {
      "inputs": [
        {
          "internalType": "address",
          "name": "operator",
          "type": "address"
        }
      ],
      "name": "ERC721InvalidOperator",
      "type": "error"
    },
    {
      "inputs": [
        {
          "internalType": "address",
          "name": "owner",
          "type": "address"
        }
      ],
      "name": "ERC721InvalidOwner",
      "type": "error"
    },
    {
      "inputs": [
        {
          "internalType": "address",
          "name": "receiver",
          "type": "address"
        }
      ],
      "name": "ERC721InvalidReceiver",
      "type": "error"
    },
    {
      "inputs": [
        {
          "internalType": "address",
          "name": "sender",
          "type": "address"
        }
      ],
      "name": "ERC721InvalidSender",
      "type": "error"
    },
    {
      "inputs": [
        {
          "internalType": "uint256",
          "name": "tokenId",
          "type": "uint256"
        }
      ],
      "name": "ERC721NonexistentToken",
      "type": "error"
    },
    {
      "inputs": [],
      "name": "EnforcedPause",
      "type": "error"
    },
    {
      "inputs": [],
      "name": "ExpectedPause",
      "type": "error"
    },
    {
      "inputs": [
        {
          "internalType": "address",
          "name": "owner",
          "type": "address"
        }
      ],
      "name": "OwnableInvalidOwner",
      "type": "error"
    },
    {
      "inputs": [
        {
          "internalType": "address",
          "name": "account",
          "type": "address"
        }
      ],
      "name": "OwnableUnauthorizedAccount",
      "type": "error"
    },
    {
      "anonymous": false,
      "inputs": [
        {
          "indexed": true,
          "internalType": "address",
          "name": "owner",
          "type": "address"
        },
        {
          "indexed": true,
          "internalType": "address",
          "name": "approved",
          "type": "address"
        },
        {
          "indexed": true,
          "internalType": "uint256",
          "name": "tokenId",
          "type": "uint256"
        }
      ],
      "name": "Approval",
      "type": "event"
    },
    {
      "anonymous": false,
      "inputs": [
        {
          "indexed": true,
          "internalType": "address",
          "name": "owner",
          "type": "address"
        },
        {
          "indexed": true,
          "internalType": "address",
          "name": "operator",
          "type": "address"
        },
        {
          "indexed": false,
          "internalType": "bool",
          "name": "approved",
          "type": "bool"
        }
      ],
      "name": "ApprovalForAll",
      "type": "event"
    },
    {
      "anonymous": false,
      "inputs": [
        {
          "indexed": false,
          "internalType": "uint256",
          "name": "_fromTokenId",
          "type": "uint256"
        },
        {
          "indexed": false,
          "internalType": "uint256",
          "name": "_toTokenId",
          "type": "uint256"
        }
      ],
      "name": "BatchMetadataUpdate",
      "type": "event"
    },
    {
      "anonymous": false,
      "inputs": [
        {
          "indexed": false,
          "internalType": "uint256",
          "name": "_tokenId",
          "type": "uint256"
        }
      ],
      "name": "MetadataUpdate",
      "type": "event"
    },
    {
      "anonymous": false,
      "inputs": [
        {
          "indexed": true,
          "internalType": "address",
          "name": "previousOwner",
          "type": "address"
        },
        {
          "indexed": true,
          "internalType": "address",
          "name": "newOwner",
          "type": "address"
        }
      ],
      "name": "OwnershipTransferred",
      "type": "event"
    },
    {
      "anonymous": false,
      "inputs": [
        {
          "indexed": false,
          "internalType": "address",
          "name": "account",
          "type": "address"
        }
      ],
      "name": "Paused",
      "type": "event"
    },
    {
      "anonymous": false,
      "inputs": [
        {
          "indexed": true,
          "internalType": "address",
          "name": "from",
          "type": "address"
        },
        {
          "indexed": true,
          "internalType": "address",
          "name": "to",
          "type": "address"
        },
        {
          "indexed": true,
          "internalType": "uint256",
          "name": "tokenId",
          "type": "uint256"
        }
      ],
      "name": "Transfer",
      "type": "event"
    },
    {
      "anonymous": false,
      "inputs": [
        {
          "indexed": false,
          "internalType": "address",
          "name": "account",
          "type": "address"
        }
      ],
      "name": "Unpaused",
      "type": "event"
    },
    {
      "inputs": [
        {
          "internalType": "address",
          "name": "to",
          "type": "address"
        },
        {
          "internalType": "uint256",
          "name": "tokenId",
          "type": "uint256"
        }
      ],
      "name": "approve",
      "outputs": [],
      "stateMutability": "nonpayable",
      "type": "function"
    },
    {
      "inputs": [
        {
          "internalType": "address",
          "name": "owner",
          "type": "address"
        }
      ],
      "name": "balanceOf",
      "outputs": [
        {
          "internalType": "uint256",
          "name": "",
          "type": "uint256"
        }
      ],
      "stateMutability": "view",
      "type": "function"
    },
    {
      "inputs": [
        {
          "internalType": "uint256",
          "name": "tokenId",
          "type": "uint256"
        }
      ],
      "name": "burn",
      "outputs": [],
      "stateMutability": "nonpayable",
      "type": "function"
    },
    {
      "inputs": [
        {
          "internalType": "uint256",
          "name": "tokenId",
          "type": "uint256"
        }
      ],
      "name": "getApproved",
      "outputs": [
        {
          "internalType": "address",
          "name": "",
          "type": "address"
        }
      ],
      "stateMutability": "view",
      "type": "function"
    },
    {
      "inputs": [
        {
          "internalType": "address",
          "name": "owner",
          "type": "address"
        }
      ],
      "name": "getNFTsByAddress",
      "outputs": [
        {
          "internalType": "uint256[]",
          "name": "",
          "type": "uint256[]"
        }
      ],
      "stateMutability": "view",
      "type": "function"
    },
    {
      "inputs": [
        {
          "internalType": "address",
          "name": "owner",
          "type": "address"
        },
        {
          "internalType": "address",
          "name": "operator",
          "type": "address"
        }
      ],
      "name": "isApprovedForAll",
      "outputs": [
        {
          "internalType": "bool",
          "name": "",
          "type": "bool"
        }
      ],
      "stateMutability": "view",
      "type": "function"
    },
    {
      "inputs": [
        {
          "internalType": "address",
          "name": "to",
          "type": "address"
        }
      ],
      "name": "mintExplorerBadge",
      "outputs": [],
      "stateMutability": "nonpayable",
      "type": "function"
    },
    {
      "inputs": [],
      "name": "name",
      "outputs": [
        {
          "internalType": "string",
          "name": "",
          "type": "string"
        }
      ],
      "stateMutability": "view",
      "type": "function"
    },
    {
      "inputs": [],
      "name": "owner",
      "outputs": [
        {
          "internalType": "address",
          "name": "",
          "type": "address"
        }
      ],
      "stateMutability": "view",
      "type": "function"
    },
    {
      "inputs": [
        {
          "internalType": "uint256",
          "name": "tokenId",
          "type": "uint256"
        }
      ],
      "name": "ownerOf",
      "outputs": [
        {
          "internalType": "address",
          "name": "",
          "type": "address"
        }
      ],
      "stateMutability": "view",
      "type": "function"
    },
    {
      "inputs": [],
      "name": "pause",
      "outputs": [],
      "stateMutability": "nonpayable",
      "type": "function"
    },
    {
      "inputs": [],
      "name": "paused",
      "outputs": [
        {
          "internalType": "bool",
          "name": "",
          "type": "bool"
        }
      ],
      "stateMutability": "view",
      "type": "function"
    },
    {
      "inputs": [],
      "name": "renounceOwnership",
      "outputs": [],
      "stateMutability": "nonpayable",
      "type": "function"
    },
    {
      "inputs": [
        {
          "internalType": "address",
          "name": "from",
          "type": "address"
        },
        {
          "internalType": "address",
          "name": "to",
          "type": "address"
        },
        {
          "internalType": "uint256",
          "name": "tokenId",
          "type": "uint256"
        }
      ],
      "name": "safeTransferFrom",
      "outputs": [],
      "stateMutability": "nonpayable",
      "type": "function"
    },
    {
      "inputs": [
        {
          "internalType": "address",
          "name": "from",
          "type": "address"
        },
        {
          "internalType": "address",
          "name": "to",
          "type": "address"
        },
        {
          "internalType": "uint256",
          "name": "tokenId",
          "type": "uint256"
        },
        {
          "internalType": "bytes",
          "name": "data",
          "type": "bytes"
        }
      ],
      "name": "safeTransferFrom",
      "outputs": [],
      "stateMutability": "nonpayable",
      "type": "function"
    },
    {
      "inputs": [
        {
          "internalType": "address",
          "name": "operator",
          "type": "address"
        },
        {
          "internalType": "bool",
          "name": "approved",
          "type": "bool"
        }
      ],
      "name": "setApprovalForAll",
      "outputs": [],
      "stateMutability": "nonpayable",
      "type": "function"
    },
    {
      "inputs": [
        {
          "internalType": "bytes4",
          "name": "interfaceId",
          "type": "bytes4"
        }
      ],
      "name": "supportsInterface",
      "outputs": [
        {
          "internalType": "bool",
          "name": "",
          "type": "bool"
        }
      ],
      "stateMutability": "view",
      "type": "function"
    },
    {
      "inputs": [],
      "name": "symbol",
      "outputs": [
        {
          "internalType": "string",
          "name": "",
          "type": "string"
        }
      ],
      "stateMutability": "view",
      "type": "function"
    },
    {
      "inputs": [
        {
          "internalType": "uint256",
          "name": "tokenId",
          "type": "uint256"
        }
      ],
      "name": "tokenURI",
      "outputs": [
        {
          "internalType": "string",
          "name": "",
          "type": "string"
        }
      ],
      "stateMutability": "view",
      "type": "function"
    },
    {
      "inputs": [
        {
          "internalType": "address",
          "name": "from",
          "type": "address"
        },
        {
          "internalType": "address",
          "name": "to",
          "type": "address"
        },
        {
          "internalType": "uint256",
          "name": "tokenId",
          "type": "uint256"
        }
      ],
      "name": "transferFrom",
      "outputs": [],
      "stateMutability": "nonpayable",
      "type": "function"
    },
    {
      "inputs": [
        {
          "internalType": "address",
          "name": "newOwner",
          "type": "address"
        }
      ],
      "name": "transferOwnership",
      "outputs": [],
      "stateMutability": "nonpayable",
      "type": "function"
    },
    {
      "inputs": [],
      "name": "unpause",
      "outputs": [],
      "stateMutability": "nonpayable",
      "type": "function"
    }
  ],
  "bytecode": "0x60806040523480156200001157600080fd5b506040516200316738038062003167833981810160405281019062000037919062000288565b806040518060400160405280601481526020017f4e65787573204578706c6f7265722042616467650000000000000000000000008152506040518060400160405280600581526020017f4e584558500000000000000000000000000000000000000000000000000000008152508160009081620000b5919062000534565b508060019081620000c7919062000534565b505050600073ffffffffffffffffffffffffffffffffffffffff168173ffffffffffffffffffffffffffffffffffffffff16036200013f5760006040517f1e4fbdf70000000000000000000000000000000000000000000000000000000081526004016200013691906200062c565b60405180910390fd5b62000150816200015860201b60201c565b505062000649565b6000600760019054906101000a900473ffffffffffffffffffffffffffffffffffffffff16905081600760016101000a81548173ffffffffffffffffffffffffffffffffffffffff021916908373ffffffffffffffffffffffffffffffffffffffff1602179055508173ffffffffffffffffffffffffffffffffffffffff168173ffffffffffffffffffffffffffffffffffffffff167f8be0079c531659141344cd1fd0a4f28419497f9722a3daafe3b4186f6b6457e060405160405180910390a35050565b600080fd5b600073ffffffffffffffffffffffffffffffffffffffff82169050919050565b6000620002508262000223565b9050919050565b620002628162000243565b81146200026e57600080fd5b50565b600081519050620002828162000257565b92915050565b600060208284031215620002a157620002a06200021e565b5b6000620002b18482850162000271565b91505092915050565b600081519050919050565b7f4e487b7100000000000000000000000000000000000000000000000000000000600052604160045260246000fd5b7f4e487b7100000000000000000000000000000000000000000000000000000000600052602260045260246000fd5b600060028204905060018216806200033c57607f821691505b602082108103620003525762000351620002f4565b5b50919050565b60008190508160005260206000209050919050565b60006020601f8301049050919050565b600082821b905092915050565b600060088302620003bc7fffffffffffffffffffffffffffffffffffffffffffffffffffffffffffffffff826200037d565b620003c886836200037d565b95508019841693508086168417925050509392505050565b6000819050919050565b6000819050919050565b6000620004156200040f6200040984620003e0565b620003ea565b620003e0565b9050919050565b6000819050919050565b6200043183620003f4565b6200044962000440826200041c565b8484546200038a565b825550505050565b600090565b6200046062000451565b6200046d81848462000426565b505050565b5b8181101562000495576200048960008262000456565b60018101905062000473565b5050565b601f821115620004e457620004ae8162000358565b620004b9846200036d565b81016020851015620004c9578190505b620004e1620004d8856200036d565b83018262000472565b50505b505050565b600082821c905092915050565b60006200050960001984600802620004e9565b1980831691505092915050565b6000620005248383620004f6565b9150826002028217905092915050565b6200053f82620002ba565b67ffffffffffffffff8111156200055b576200055a620002c5565b5b62000567825462000323565b6200057482828562000499565b600060209050601f831160018114620005ac576000841562000597578287015190505b620005a3858262000516565b86555062000613565b601f198416620005bc8662000358565b60005b82811015620005e657848901518255600182019150602085019450602081019050620005bf565b8683101562000606578489015162000602601f891682620004f6565b8355505b6001600288020188555050505b505050505050565b620006268162000243565b82525050565b60006020820190506200064360008301846200061b565b92915050565b612b0e80620006596000396000f3fe608060405234801561001057600080fd5b50600436106101425760003560e01c806370a08231116100b85780639d66ad571161007c5780639d66ad571461033d578063a22cb46514610359578063b88d4fde14610375578063c87b56dd14610391578063e985e9c5146103c1578063f2fde38b146103f157610142565b806370a08231146102bd578063715018a6146102ed5780638456cb59146102f75780638da5cb5b1461030157806395d89b411461031f57610142565b806323b872dd1161010a57806323b872dd146102115780633f4ba83a1461022d57806342842e0e1461023757806342966c68146102535780635c975abb1461026f5780636352211e1461028d57610142565b806301ffc9a71461014757806306fdde0314610177578063081812fc14610195578063095ea7b3146101c55780631dadae8e146101e1575b600080fd5b610161600480360381019061015c9190611ed0565b61040d565b60405161016e9190611f18565b60405180910390f35b61017f61041f565b60405161018c9190611fc3565b60405180910390f35b6101af60048036038101906101aa919061201b565b6104b1565b6040516101bc9190612089565b60405180910390f35b6101df60048036038101906101da91906120d0565b6104cd565b005b6101fb60048036038101906101f69190612110565b6104e3565b60405161020891906121fb565b60405180910390f35b61022b6004803603810190610226919061221d565b61063a565b005b61023561073c565b005b610251600480360381019061024c919061221d565b61074e565b005b61026d6004803603810190610268919061201b565b61076e565b005b610277610785565b6040516102849190611f18565b60405180910390f35b6102a760048036038101906102a2919061201b565b61079c565b6040516102b49190612089565b60405180910390f35b6102d760048036038101906102d29190612110565b6107ae565b6040516102e4919061227f565b60405180910390f35b6102f5610868565b005b6102ff61087c565b005b61030961088e565b6040516103169190612089565b60405180910390f35b6103276108b8565b6040516103349190611fc3565b60405180910390f35b61035760048036038101906103529190612110565b61094a565b005b610373600480360381019061036e91906122c6565b61099d565b005b61038f600480360381019061038a919061243b565b6109b3565b005b6103ab60048036038101906103a6919061201b565b6109d8565b6040516103b89190611fc3565b60405180910390f35b6103db60048036038101906103d691906124be565b6109ea565b6040516103e89190611f18565b60405180910390f35b61040b60048036038101906104069190612110565b610a7e565b005b600061041882610b04565b9050919050565b60606000805461042e9061252d565b80601f016020809104026020016040519081016040528092919081815260200182805461045a9061252d565b80156104a75780601f1061047c576101008083540402835291602001916104a7565b820191906000526020600020905b81548152906001019060200180831161048a57829003601f168201915b5050505050905090565b60006104bc82610b65565b506104c682610bed565b9050919050565b6104df82826104da610c2a565b610c32565b5050565b60606000600854905060008167ffffffffffffffff81111561050857610507612310565b5b6040519080825280602002602001820160405280156105365781602001602082028036833780820191505090505b5090506000805b8381101561062b573073ffffffffffffffffffffffffffffffffffffffff16636352211e826040518263ffffffff1660e01b815260040161057e919061227f565b602060405180830381865afa9250505080156105b857506040513d601f19601f820116820180604052508101906105b59190612573565b60015b1561062b578673ffffffffffffffffffffffffffffffffffffffff168173ffffffffffffffffffffffffffffffffffffffff160361061d57818484806105fd906125cf565b9550815181106106105761060f612617565b5b6020026020010181815250505b50808060010191505061053d565b50808252819350505050919050565b600073ffffffffffffffffffffffffffffffffffffffff168273ffffffffffffffffffffffffffffffffffffffff16036106ac5760006040517f64a0ae920000000000000000000000000000000000000000000000000000000081526004016106a39190612089565b60405180910390fd5b60006106c083836106bb610c2a565b610c44565b90508373ffffffffffffffffffffffffffffffffffffffff168173ffffffffffffffffffffffffffffffffffffffff1614610736578382826040517f64283d7b00000000000000000000000000000000000000000000000000000000815260040161072d93929190612646565b60405180910390fd5b50505050565b610744610c5a565b61074c610ce1565b565b610769838383604051806020016040528060008152506109b3565b505050565b61078160008261077c610c2a565b610c44565b5050565b6000600760009054906101000a900460ff16905090565b60006107a782610b65565b9050919050565b60008073ffffffffffffffffffffffffffffffffffffffff168273ffffffffffffffffffffffffffffffffffffffff16036108215760006040517f89c62b640000000000000000000000000000000000000000000000000000000081526004016108189190612089565b60405180910390fd5b600360008373ffffffffffffffffffffffffffffffffffffffff1673ffffffffffffffffffffffffffffffffffffffff168152602001908152602001600020549050919050565b610870610c5a565b61087a6000610d44565b565b610884610c5a565b61088c610e0a565b565b6000600760019054906101000a900473ffffffffffffffffffffffffffffffffffffffff16905090565b6060600180546108c79061252d565b80601f01602080910402602001604051908101604052809291908181526020018280546108f39061252d565b80156109405780601f1061091557610100808354040283529160200191610940565b820191906000526020600020905b81548152906001019060200180831161092357829003601f168201915b5050505050905090565b610952610c5a565b600060086000815480929190610967906125cf565b9190505590506109778282610e6d565b61099981604051806080016040528060428152602001612a9760429139610e8b565b5050565b6109af6109a8610c2a565b8383610ee7565b5050565b6109be84848461063a565b6109d26109c9610c2a565b85858585611056565b50505050565b60606109e382611207565b9050919050565b6000600560008473ffffffffffffffffffffffffffffffffffffffff1673ffffffffffffffffffffffffffffffffffffffff16815260200190815260200160002060008373ffffffffffffffffffffffffffffffffffffffff1673ffffffffffffffffffffffffffffffffffffffff16815260200190815260200160002060009054906101000a900460ff16905092915050565b610a86610c5a565b600073ffffffffffffffffffffffffffffffffffffffff168173ffffffffffffffffffffffffffffffffffffffff1603610af85760006040517f1e4fbdf7000000000000000000000000000000000000000000000000000000008152600401610aef9190612089565b60405180910390fd5b610b0181610d44565b50565b6000634906490660e01b7bffffffffffffffffffffffffffffffffffffffffffffffffffffffff1916827bffffffffffffffffffffffffffffffffffffffffffffffffffffffff19161480610b5e5750610b5d8261131a565b5b9050919050565b600080610b71836113fc565b9050600073ffffffffffffffffffffffffffffffffffffffff168173ffffffffffffffffffffffffffffffffffffffff1603610be457826040517f7e273289000000000000000000000000000000000000000000000000000000008152600401610bdb919061227f565b60405180910390fd5b80915050919050565b60006004600083815260200190815260200160002060009054906101000a900473ffffffffffffffffffffffffffffffffffffffff169050919050565b600033905090565b610c3f8383836001611439565b505050565b6000610c518484846115fe565b90509392505050565b610c62610c2a565b73ffffffffffffffffffffffffffffffffffffffff16610c8061088e565b73ffffffffffffffffffffffffffffffffffffffff1614610cdf57610ca3610c2a565b6040517f118cdaa7000000000000000000000000000000000000000000000000000000008152600401610cd69190612089565b60405180910390fd5b565b610ce961161c565b6000600760006101000a81548160ff0219169083151502179055507f5db9ee0a495bf2e6ff9c91a7834c1ba4fdd244a5e8aa4e537bd38aeae4b073aa610d2d610c2a565b604051610d3a9190612089565b60405180910390a1565b6000600760019054906101000a900473ffffffffffffffffffffffffffffffffffffffff16905081600760016101000a81548173ffffffffffffffffffffffffffffffffffffffff021916908373ffffffffffffffffffffffffffffffffffffffff1602179055508173ffffffffffffffffffffffffffffffffffffffff168173ffffffffffffffffffffffffffffffffffffffff167f8be0079c531659141344cd1fd0a4f28419497f9722a3daafe3b4186f6b6457e060405160405180910390a35050565b610e1261165c565b6001600760006101000a81548160ff0219169083151502179055507f62e78cea01bee320cd4e420270b5ea74000d11b0c9f74754ebdbfc544b05a258610e56610c2a565b604051610e639190612089565b60405180910390a1565b610e8782826040518060200160405280600081525061169d565b5050565b80600660008481526020019081526020016000209081610eab9190612829565b507ff8e1a15aba9398e019f0b49df1a4fde98ee17ae345cb5f6b5e2c27f5033e8ce782604051610edb919061227f565b60405180910390a15050565b600073ffffffffffffffffffffffffffffffffffffffff168273ffffffffffffffffffffffffffffffffffffffff1603610f5857816040517f5b08ba18000000000000000000000000000000000000000000000000000000008152600401610f4f9190612089565b60405180910390fd5b80600560008573ffffffffffffffffffffffffffffffffffffffff1673ffffffffffffffffffffffffffffffffffffffff16815260200190815260200160002060008473ffffffffffffffffffffffffffffffffffffffff1673ffffffffffffffffffffffffffffffffffffffff16815260200190815260200160002060006101000a81548160ff0219169083151502179055508173ffffffffffffffffffffffffffffffffffffffff168373ffffffffffffffffffffffffffffffffffffffff167f17307eab39ab6107e8899845ad3d59bd9653f200f220920489ca2b5937696c31836040516110499190611f18565b60405180910390a3505050565b60008373ffffffffffffffffffffffffffffffffffffffff163b1115611200578273ffffffffffffffffffffffffffffffffffffffff1663150b7a02868685856040518563ffffffff1660e01b81526004016110b59493929190612950565b6020604051808303816000875af19250505080156110f157506040513d601f19601f820116820180604052508101906110ee91906129b1565b60015b611175573d8060008114611121576040519150601f19603f3d011682016040523d82523d6000602084013e611126565b606091505b50600081510361116d57836040517f64a0ae920000000000000000000000000000000000000000000000000000000081526004016111649190612089565b60405180910390fd5b805181602001fd5b63150b7a0260e01b7bffffffffffffffffffffffffffffffffffffffffffffffffffffffff1916817bffffffffffffffffffffffffffffffffffffffffffffffffffffffff1916146111fe57836040517f64a0ae920000000000000000000000000000000000000000000000000000000081526004016111f59190612089565b60405180910390fd5b505b5050505050565b606061121282610b65565b5060006006600084815260200190815260200160002080546112339061252d565b80601f016020809104026020016040519081016040528092919081815260200182805461125f9061252d565b80156112ac5780601f10611281576101008083540402835291602001916112ac565b820191906000526020600020905b81548152906001019060200180831161128f57829003601f168201915b5050505050905060006112bd6116c1565b905060008151036112d2578192505050611315565b6000825111156113075780826040516020016112ef929190612a1a565b60405160208183030381529060405292505050611315565b611310846116d8565b925050505b919050565b60007f80ac58cd000000000000000000000000000000000000000000000000000000007bffffffffffffffffffffffffffffffffffffffffffffffffffffffff1916827bffffffffffffffffffffffffffffffffffffffffffffffffffffffff191614806113e557507f5b5e139f000000000000000000000000000000000000000000000000000000007bffffffffffffffffffffffffffffffffffffffffffffffffffffffff1916827bffffffffffffffffffffffffffffffffffffffffffffffffffffffff1916145b806113f557506113f482611741565b5b9050919050565b60006002600083815260200190815260200160002060009054906101000a900473ffffffffffffffffffffffffffffffffffffffff169050919050565b80806114725750600073ffffffffffffffffffffffffffffffffffffffff168273ffffffffffffffffffffffffffffffffffffffff1614155b156115a657600061148284610b65565b9050600073ffffffffffffffffffffffffffffffffffffffff168373ffffffffffffffffffffffffffffffffffffffff16141580156114ed57508273ffffffffffffffffffffffffffffffffffffffff168173ffffffffffffffffffffffffffffffffffffffff1614155b801561150057506114fe81846109ea565b155b1561154257826040517fa9fbf51f0000000000000000000000000000000000000000000000000000000081526004016115399190612089565b60405180910390fd5b81156115a457838573ffffffffffffffffffffffffffffffffffffffff168273ffffffffffffffffffffffffffffffffffffffff167f8c5be1e5ebec7d5bd14f71427d1e84f3dd0314c0f7b2291e5b200ac8c7c3b92560405160405180910390a45b505b836004600085815260200190815260200160002060006101000a81548173ffffffffffffffffffffffffffffffffffffffff021916908373ffffffffffffffffffffffffffffffffffffffff16021790555050505050565b600061160861165c565b6116138484846117ab565b90509392505050565b611624610785565b61165a576040517f8dfc202b00000000000000000000000000000000000000000000000000000000815260040160405180910390fd5b565b611664610785565b1561169b576040517fd93c066500000000000000000000000000000000000000000000000000000000815260040160405180910390fd5b565b6116a783836119c5565b6116bc6116b2610c2a565b6000858585611056565b505050565b606060405180602001604052806000815250905090565b60606116e382610b65565b5060006116ee6116c1565b9050600081511161170e5760405180602001604052806000815250611739565b8061171884611abe565b604051602001611729929190612a1a565b6040516020818303038152906040525b915050919050565b60007f01ffc9a7000000000000000000000000000000000000000000000000000000007bffffffffffffffffffffffffffffffffffffffffffffffffffffffff1916827bffffffffffffffffffffffffffffffffffffffffffffffffffffffff1916149050919050565b6000806117b7846113fc565b9050600073ffffffffffffffffffffffffffffffffffffffff168373ffffffffffffffffffffffffffffffffffffffff16146117f9576117f8818486611b8c565b5b600073ffffffffffffffffffffffffffffffffffffffff168173ffffffffffffffffffffffffffffffffffffffff161461188a5761183b600085600080611439565b6001600360008373ffffffffffffffffffffffffffffffffffffffff1673ffffffffffffffffffffffffffffffffffffffff168152602001908152602001600020600082825403925050819055505b600073ffffffffffffffffffffffffffffffffffffffff168573ffffffffffffffffffffffffffffffffffffffff161461190d576001600360008773ffffffffffffffffffffffffffffffffffffffff1673ffffffffffffffffffffffffffffffffffffffff168152602001908152602001600020600082825401925050819055505b846002600086815260200190815260200160002060006101000a81548173ffffffffffffffffffffffffffffffffffffffff021916908373ffffffffffffffffffffffffffffffffffffffff160217905550838573ffffffffffffffffffffffffffffffffffffffff168273ffffffffffffffffffffffffffffffffffffffff167fddf252ad1be2c89b69c2b068fc378daa952ba7f163c4a11628f55a4df523b3ef60405160405180910390a4809150509392505050565b600073ffffffffffffffffffffffffffffffffffffffff168273ffffffffffffffffffffffffffffffffffffffff1603611a375760006040517f64a0ae92000000000000000000000000000000000000000000000000000000008152600401611a2e9190612089565b60405180910390fd5b6000611a4583836000610c44565b9050600073ffffffffffffffffffffffffffffffffffffffff168173ffffffffffffffffffffffffffffffffffffffff1614611ab95760006040517f73c6ac6e000000000000000000000000000000000000000000000000000000008152600401611ab09190612089565b60405180910390fd5b505050565b606060006001611acd84611c50565b01905060008167ffffffffffffffff811115611aec57611aeb612310565b5b6040519080825280601f01601f191660200182016040528015611b1e5781602001600182028036833780820191505090505b509050600082602001820190505b600115611b81578080600190039150507f3031323334353637383961626364656600000000000000000000000000000000600a86061a8153600a8581611b7557611b74612a3e565b5b04945060008503611b2c575b819350505050919050565b611b97838383611da3565b611c4b57600073ffffffffffffffffffffffffffffffffffffffff168373ffffffffffffffffffffffffffffffffffffffff1603611c0c57806040517f7e273289000000000000000000000000000000000000000000000000000000008152600401611c03919061227f565b60405180910390fd5b81816040517f177e802f000000000000000000000000000000000000000000000000000000008152600401611c42929190612a6d565b60405180910390fd5b505050565b600080600090507a184f03e93ff9f4daa797ed6e38ed64bf6a1f0100000000000000008310611cae577a184f03e93ff9f4daa797ed6e38ed64bf6a1f0100000000000000008381611ca457611ca3612a3e565b5b0492506040810190505b6d04ee2d6d415b85acef81000000008310611ceb576d04ee2d6d415b85acef81000000008381611ce157611ce0612a3e565b5b0492506020810190505b662386f26fc100008310611d1a57662386f26fc100008381611d1057611d0f612a3e565b5b0492506010810190505b6305f5e1008310611d43576305f5e1008381611d3957611d38612a3e565b5b0492506008810190505b6127108310611d68576127108381611d5e57611d5d612a3e565b5b0492506004810190505b60648310611d8b5760648381611d8157611d80612a3e565b5b0492506002810190505b600a8310611d9a576001810190505b80915050919050565b60008073ffffffffffffffffffffffffffffffffffffffff168373ffffffffffffffffffffffffffffffffffffffff1614158015611e5b57508273ffffffffffffffffffffffffffffffffffffffff168473ffffffffffffffffffffffffffffffffffffffff161480611e1c5750611e1b84846109ea565b5b80611e5a57508273ffffffffffffffffffffffffffffffffffffffff16611e4283610bed565b73ffffffffffffffffffffffffffffffffffffffff16145b5b90509392505050565b6000604051905090565b600080fd5b600080fd5b60007fffffffff0000000000000000000000000000000000000000000000000000000082169050919050565b611ead81611e78565b8114611eb857600080fd5b50565b600081359050611eca81611ea4565b92915050565b600060208284031215611ee657611ee5611e6e565b5b6000611ef484828501611ebb565b91505092915050565b60008115159050919050565b611f1281611efd565b82525050565b6000602082019050611f2d6000830184611f09565b92915050565b600081519050919050565b600082825260208201905092915050565b60005b83811015611f6d578082015181840152602081019050611f52565b60008484015250505050565b6000601f19601f8301169050919050565b6000611f9582611f33565b611f9f8185611f3e565b9350611faf818560208601611f4f565b611fb881611f79565b840191505092915050565b60006020820190508181036000830152611fdd8184611f8a565b905092915050565b6000819050919050565b611ff881611fe5565b811461200357600080fd5b50565b60008135905061201581611fef565b92915050565b60006020828403121561203157612030611e6e565b5b600061203f84828501612006565b91505092915050565b600073ffffffffffffffffffffffffffffffffffffffff82169050919050565b600061207382612048565b9050919050565b61208381612068565b82525050565b600060208201905061209e600083018461207a565b92915050565b6120ad81612068565b81146120b857600080fd5b50565b6000813590506120ca816120a4565b92915050565b600080604083850312156120e7576120e6611e6e565b5b60006120f5858286016120bb565b925050602061210685828601612006565b9150509250929050565b60006020828403121561212657612125611e6e565b5b6000612134848285016120bb565b91505092915050565b600081519050919050565b600082825260208201905092915050565b6000819050602082019050919050565b61217281611fe5565b82525050565b60006121848383612169565b60208301905092915050565b6000602082019050919050565b60006121a88261213d565b6121b28185612148565b93506121bd83612159565b8060005b838110156121ee5781516121d58882612178565b97506121e083612190565b9250506001810190506121c1565b5085935050505092915050565b60006020820190508181036000830152612215818461219d565b905092915050565b60008060006060848603121561223657612235611e6e565b5b6000612244868287016120bb565b9350506020612255868287016120bb565b925050604061226686828701612006565b9150509250925092565b61227981611fe5565b82525050565b60006020820190506122946000830184612270565b92915050565b6122a381611efd565b81146122ae57600080fd5b50565b6000813590506122c08161229a565b92915050565b600080604083850312156122dd576122dc611e6e565b5b60006122eb858286016120bb565b92505060206122fc858286016122b1565b9150509250929050565b600080fd5b600080fd5b7f4e487b7100000000000000000000000000000000000000000000000000000000600052604160045260246000fd5b61234882611f79565b810181811067ffffffffffffffff8211171561236757612366612310565b5b80604052505050565b600061237a611e64565b9050612386828261233f565b919050565b600067ffffffffffffffff8211156123a6576123a5612310565b5b6123af82611f79565b9050602081019050919050565b82818337600083830152505050565b60006123de6123d98461238b565b612370565b9050828152602081018484840111156123fa576123f961230b565b5b6124058482856123bc565b509392505050565b600082601f83011261242257612421612306565b5b81356124328482602086016123cb565b91505092915050565b6000806000806080858703121561245557612454611e6e565b5b6000612463878288016120bb565b9450506020612474878288016120bb565b935050604061248587828801612006565b925050606085013567ffffffffffffffff8111156124a6576124a5611e73565b5b6124b28782880161240d565b91505092959194509250565b600080604083850312156124d5576124d4611e6e565b5b60006124e3858286016120bb565b92505060206124f4858286016120bb565b9150509250929050565b7f4e487b7100000000000000000000000000000000000000000000000000000000600052602260045260246000fd5b6000600282049050600182168061254557607f821691505b602082108103612558576125576124fe565b5b50919050565b60008151905061256d816120a4565b92915050565b60006020828403121561258957612588611e6e565b5b60006125978482850161255e565b91505092915050565b7f4e487b7100000000000000000000000000000000000000000000000000000000600052601160045260246000fd5b60006125da82611fe5565b91507fffffffffffffffffffffffffffffffffffffffffffffffffffffffffffffffff820361260c5761260b6125a0565b5b600182019050919050565b7f4e487b7100000000000000000000000000000000000000000000000000000000600052603260045260246000fd5b600060608201905061265b600083018661207a565b6126686020830185612270565b612675604083018461207a565b949350505050565b60008190508160005260206000209050919050565b60006020601f8301049050919050565b600082821b905092915050565b6000600883026126df7fffffffffffffffffffffffffffffffffffffffffffffffffffffffffffffffff826126a2565b6126e986836126a2565b95508019841693508086168417925050509392505050565b6000819050919050565b600061272661272161271c84611fe5565b612701565b611fe5565b9050919050565b6000819050919050565b6127408361270b565b61275461274c8261272d565b8484546126af565b825550505050565b600090565b61276961275c565b612774818484612737565b505050565b5b818110156127985761278d600082612761565b60018101905061277a565b5050565b601f8211156127dd576127ae8161267d565b6127b784612692565b810160208510156127c6578190505b6127da6127d285612692565b830182612779565b50505b505050565b600082821c905092915050565b6000612800600019846008026127e2565b1980831691505092915050565b600061281983836127ef565b9150826002028217905092915050565b61283282611f33565b67ffffffffffffffff81111561284b5761284a612310565b5b612855825461252d565b61286082828561279c565b600060209050601f8311600181146128935760008415612881578287015190505b61288b858261280d565b8655506128f3565b601f1984166128a18661267d565b60005b828110156128c9578489015182556001820191506020850194506020810190506128a4565b868310156128e657848901516128e2601f8916826127ef565b8355505b6001600288020188555050505b505050505050565b600081519050919050565b600082825260208201905092915050565b6000612922826128fb565b61292c8185612906565b935061293c818560208601611f4f565b61294581611f79565b840191505092915050565b6000608082019050612965600083018761207a565b612972602083018661207a565b61297f6040830185612270565b81810360608301526129918184612917565b905095945050505050565b6000815190506129ab81611ea4565b92915050565b6000602082840312156129c7576129c6611e6e565b5b60006129d58482850161299c565b91505092915050565b600081905092915050565b60006129f482611f33565b6129fe81856129de565b9350612a0e818560208601611f4f565b80840191505092915050565b6000612a2682856129e9565b9150612a3282846129e9565b91508190509392505050565b7f4e487b7100000000000000000000000000000000000000000000000000000000600052601260045260246000fd5b6000604082019050612a82600083018561207a565b612a8f6020830184612270565b939250505056fe697066733a2f2f6261666b72656964327774763635696665327a6b32776963346578666e357768786b34676379346c793479626676787579776a74766d6970733265a264697066735822122091c1d900376467cc88e34fcd2d8ad622f809c2e9b90bfa039bf59ac446d3980d64736f6c63430008180033",
  "linkReferences": {},
  "deployedLinkReferences": {}
}