{
  "_format": "hh-sol-artifact-1",
  "contractName": "NexusExplorerBadge",
  "sourceName": "contracts/NexusExplorerBadge.sol",
  "abi": [
    {
      "inputs": [
        {
          "internalType": "address",
          "name": "initialOwner",
          "type": "address"
        }
      ],
      "stateMutability": "nonpayable",
      "type": "constructor"
    },
    {
      "inputs": [
        {
          "internalType": "address",
          "name": "sender",
          "type": "address"
        },
        {
          "internalType": "uint256",
          "name": "tokenId",
          "type": "uint256"
        },
        {
          "internalType": "address",
          "name": "owner",
          "type": "address"
        }
      ],
      "name": "ERC721IncorrectOwner",
      "type": "error"
    },
    {
      "inputs": [
        {
          "internalType": "address",
          "name": "operator",
          "type": "address"
        },
        {
          "internalType": "uint256",
          "name": "tokenId",
          "type": "uint256"
        }
      ],
      "name": "ERC721InsufficientApproval",
      "type": "error"
    },
    {
      "inputs": [
        {
          "internalType": "address",
          "name": "approver",
          "type": "address"
        }
      ],
      "name": "ERC721InvalidApprover",
      "type": "error"
    },
    {
      "inputs": [
        {
          "internalType": "address",
          "name": "operator",
          "type": "address"
        }
      ],
      "name": "ERC721InvalidOperator",
      "type": "error"
    },
    {
      "inputs": [
        {
          "internalType": "address",
          "name": "owner",
          "type": "address"
        }
      ],
      "name": "ERC721InvalidOwner",
      "type": "error"
    },
    {
      "inputs": [
        {
          "internalType": "address",
          "name": "receiver",
          "type": "address"
        }
      ],
      "name": "ERC721InvalidReceiver",
      "type": "error"
    },
    {
      "inputs": [
        {
          "internalType": "address",
          "name": "sender",
          "type": "address"
        }
      ],
      "name": "ERC721InvalidSender",
      "type": "error"
    },
    {
      "inputs": [
        {
          "internalType": "uint256",
          "name": "tokenId",
          "type": "uint256"
        }
      ],
      "name": "ERC721NonexistentToken",
      "type": "error"
    },
    {
      "inputs": [],
      "name": "EnforcedPause",
      "type": "error"
    },
    {
      "inputs": [],
      "name": "ExpectedPause",
      "type": "error"
    },
    {
      "inputs": [
        {
          "internalType": "address",
          "name": "owner",
          "type": "address"
        }
      ],
      "name": "OwnableInvalidOwner",
      "type": "error"
    },
    {
      "inputs": [
        {
          "internalType": "address",
          "name": "account",
          "type": "address"
        }
      ],
      "name": "OwnableUnauthorizedAccount",
      "type": "error"
    },
    {
      "anonymous": false,
      "inputs": [
        {
          "indexed": true,
          "internalType": "address",
          "name": "owner",
          "type": "address"
        },
        {
          "indexed": true,
          "internalType": "address",
          "name": "approved",
          "type": "address"
        },
        {
          "indexed": true,
          "internalType": "uint256",
          "name": "tokenId",
          "type": "uint256"
        }
      ],
      "name": "Approval",
      "type": "event"
    },
    {
      "anonymous": false,
      "inputs": [
        {
          "indexed": true,
          "internalType": "address",
          "name": "owner",
          "type": "address"
        },
        {
          "indexed": true,
          "internalType": "address",
          "name": "operator",
          "type": "address"
        },
        {
          "indexed": false,
          "internalType": "bool",
          "name": "approved",
          "type": "bool"
        }
      ],
      "name": "ApprovalForAll",
      "type": "event"
    },
    {
      "anonymous": false,
      "inputs": [
        {
          "indexed": false,
          "internalType": "uint256",
          "name": "_fromTokenId",
          "type": "uint256"
        },
        {
          "indexed": false,
          "internalType": "uint256",
          "name": "_toTokenId",
          "type": "uint256"
        }
      ],
      "name": "BatchMetadataUpdate",
      "type": "event"
    },
    {
      "anonymous": false,
      "inputs": [
        {
          "indexed": true,
          "internalType": "address",
          "name": "recipient",
          "type": "address"
        },
        {
          "indexed": true,
          "internalType": "uint256",
          "name": "tokenId",
          "type": "uint256"
        }
      ],
      "name": "ExplorerBadgeMinted",
      "type": "event"
    },
    {
      "anonymous": false,
      "inputs": [
        {
          "indexed": false,
          "internalType": "uint256",
          "name": "_tokenId",
          "type": "uint256"
        }
      ],
      "name": "MetadataUpdate",
      "type": "event"
    },
    {
      "anonymous": false,
      "inputs": [
        {
          "indexed": true,
          "internalType": "address",
          "name": "previousOwner",
          "type": "address"
        },
        {
          "indexed": true,
          "internalType": "address",
          "name": "newOwner",
          "type": "address"
        }
      ],
      "name": "OwnershipTransferred",
      "type": "event"
    },
    {
      "anonymous": false,
      "inputs": [
        {
          "indexed": false,
          "internalType": "address",
          "name": "account",
          "type": "address"
        }
      ],
      "name": "Paused",
      "type": "event"
    },
    {
      "anonymous": false,
      "inputs": [
        {
          "indexed": true,
          "internalType": "address",
          "name": "from",
          "type": "address"
        },
        {
          "indexed": true,
          "internalType": "address",
          "name": "to",
          "type": "address"
        },
        {
          "indexed": true,
          "internalType": "uint256",
          "name": "tokenId",
          "type": "uint256"
        }
      ],
      "name": "Transfer",
      "type": "event"
    },
    {
      "anonymous": false,
      "inputs": [
        {
          "indexed": false,
          "internalType": "address",
          "name": "account",
          "type": "address"
        }
      ],
      "name": "Unpaused",
      "type": "event"
    },
    {
      "inputs": [
        {
          "internalType": "address",
          "name": "to",
          "type": "address"
        },
        {
          "internalType": "uint256",
          "name": "tokenId",
          "type": "uint256"
        }
      ],
      "name": "approve",
      "outputs": [],
      "stateMutability": "nonpayable",
      "type": "function"
    },
    {
      "inputs": [
        {
          "internalType": "address",
          "name": "owner",
          "type": "address"
        }
      ],
      "name": "balanceOf",
      "outputs": [
        {
          "internalType": "uint256",
          "name": "",
          "type": "uint256"
        }
      ],
      "stateMutability": "view",
      "type": "function"
    },
    {
      "inputs": [
        {
          "internalType": "uint256",
          "name": "tokenId",
          "type": "uint256"
        }
      ],
      "name": "burn",
      "outputs": [],
      "stateMutability": "nonpayable",
      "type": "function"
    },
    {
      "inputs": [
        {
          "internalType": "uint256",
          "name": "tokenId",
          "type": "uint256"
        }
      ],
      "name": "getApproved",
      "outputs": [
        {
          "internalType": "address",
          "name": "",
          "type": "address"
        }
      ],
      "stateMutability": "view",
      "type": "function"
    },
    {
      "inputs": [
        {
          "internalType": "address",
          "name": "owner",
          "type": "address"
        }
      ],
      "name": "getNFTsByAddress",
      "outputs": [
        {
          "internalType": "uint256[]",
          "name": "",
          "type": "uint256[]"
        }
      ],
      "stateMutability": "view",
      "type": "function"
    },
    {
      "inputs": [
        {
          "internalType": "address",
          "name": "",
          "type": "address"
        }
      ],
      "name": "hasMinted",
      "outputs": [
        {
          "internalType": "bool",
          "name": "",
          "type": "bool"
        }
      ],
      "stateMutability": "view",
      "type": "function"
    },
    {
      "inputs": [
        {
          "internalType": "address",
          "name": "owner",
          "type": "address"
        },
        {
          "internalType": "address",
          "name": "operator",
          "type": "address"
        }
      ],
      "name": "isApprovedForAll",
      "outputs": [
        {
          "internalType": "bool",
          "name": "",
          "type": "bool"
        }
      ],
      "stateMutability": "view",
      "type": "function"
    },
    {
      "inputs": [],
      "name": "mintExplorerBadge",
      "outputs": [],
      "stateMutability": "nonpayable",
      "type": "function"
    },
    {
      "inputs": [
        {
          "internalType": "address",
          "name": "recipient",
          "type": "address"
        }
      ],
      "name": "mintExplorerBadge",
      "outputs": [],
      "stateMutability": "nonpayable",
      "type": "function"
    },
    {
      "inputs": [],
      "name": "name",
      "outputs": [
        {
          "internalType": "string",
          "name": "",
          "type": "string"
        }
      ],
      "stateMutability": "view",
      "type": "function"
    },
    {
      "inputs": [],
      "name": "owner",
      "outputs": [
        {
          "internalType": "address",
          "name": "",
          "type": "address"
        }
      ],
      "stateMutability": "view",
      "type": "function"
    },
    {
      "inputs": [
        {
          "internalType": "uint256",
          "name": "tokenId",
          "type": "uint256"
        }
      ],
      "name": "ownerOf",
      "outputs": [
        {
          "internalType": "address",
          "name": "",
          "type": "address"
        }
      ],
      "stateMutability": "view",
      "type": "function"
    },
    {
      "inputs": [],
      "name": "pause",
      "outputs": [],
      "stateMutability": "nonpayable",
      "type": "function"
    },
    {
      "inputs": [],
      "name": "paused",
      "outputs": [
        {
          "internalType": "bool",
          "name": "",
          "type": "bool"
        }
      ],
      "stateMutability": "view",
      "type": "function"
    },
    {
      "inputs": [],
      "name": "renounceOwnership",
      "outputs": [],
      "stateMutability": "nonpayable",
      "type": "function"
    },
    {
      "inputs": [
        {
          "internalType": "address",
          "name": "from",
          "type": "address"
        },
        {
          "internalType": "address",
          "name": "to",
          "type": "address"
        },
        {
          "internalType": "uint256",
          "name": "tokenId",
          "type": "uint256"
        }
      ],
      "name": "safeTransferFrom",
      "outputs": [],
      "stateMutability": "nonpayable",
      "type": "function"
    },
    {
      "inputs": [
        {
          "internalType": "address",
          "name": "from",
          "type": "address"
        },
        {
          "internalType": "address",
          "name": "to",
          "type": "address"
        },
        {
          "internalType": "uint256",
          "name": "tokenId",
          "type": "uint256"
        },
        {
          "internalType": "bytes",
          "name": "data",
          "type": "bytes"
        }
      ],
      "name": "safeTransferFrom",
      "outputs": [],
      "stateMutability": "nonpayable",
      "type": "function"
    },
    {
      "inputs": [
        {
          "internalType": "address",
          "name": "operator",
          "type": "address"
        },
        {
          "internalType": "bool",
          "name": "approved",
          "type": "bool"
        }
      ],
      "name": "setApprovalForAll",
      "outputs": [],
      "stateMutability": "nonpayable",
      "type": "function"
    },
    {
      "inputs": [
        {
          "internalType": "bytes4",
          "name": "interfaceId",
          "type": "bytes4"
        }
      ],
      "name": "supportsInterface",
      "outputs": [
        {
          "internalType": "bool",
          "name": "",
          "type": "bool"
        }
      ],
      "stateMutability": "view",
      "type": "function"
    },
    {
      "inputs": [],
      "name": "symbol",
      "outputs": [
        {
          "internalType": "string",
          "name": "",
          "type": "string"
        }
      ],
      "stateMutability": "view",
      "type": "function"
    },
    {
      "inputs": [
        {
          "internalType": "uint256",
          "name": "tokenId",
          "type": "uint256"
        }
      ],
      "name": "tokenURI",
      "outputs": [
        {
          "internalType": "string",
          "name": "",
          "type": "string"
        }
      ],
      "stateMutability": "view",
      "type": "function"
    },
    {
      "inputs": [
        {
          "internalType": "address",
          "name": "from",
          "type": "address"
        },
        {
          "internalType": "address",
          "name": "to",
          "type": "address"
        },
        {
          "internalType": "uint256",
          "name": "tokenId",
          "type": "uint256"
        }
      ],
      "name": "transferFrom",
      "outputs": [],
      "stateMutability": "nonpayable",
      "type": "function"
    },
    {
      "inputs": [
        {
          "internalType": "address",
          "name": "newOwner",
          "type": "address"
        }
      ],
      "name": "transferOwnership",
      "outputs": [],
      "stateMutability": "nonpayable",
      "type": "function"
    },
    {
      "inputs": [],
      "name": "unpause",
      "outputs": [],
      "stateMutability": "nonpayable",
      "type": "function"
    },
    {
      "inputs": [
        {
          "internalType": "string",
          "name": "newUri",
          "type": "string"
        }
      ],
      "name": "updateBaseBadgeURI",
      "outputs": [],
      "stateMutability": "nonpayable",
      "type": "function"
    }
  ],
  "bytecode": "0x60806040523480156200001157600080fd5b506040516200389c3803806200389c8339818101604052810190620000379190620002b3565b806040518060400160405280601481526020017f4e65787573204578706c6f7265722042616467650000000000000000000000008152506040518060400160405280600581526020017f4e584558500000000000000000000000000000000000000000000000000000008152508160009081620000b591906200055f565b508060019081620000c791906200055f565b505050600073ffffffffffffffffffffffffffffffffffffffff168173ffffffffffffffffffffffffffffffffffffffff16036200013f5760006040517f1e4fbdf700000000000000000000000000000000000000000000000000000000815260040162000136919062000657565b60405180910390fd5b62000150816200018360201b60201c565b506040518060800160405280604281526020016200385a60429139600990816200017b91906200055f565b505062000674565b6000600760019054906101000a900473ffffffffffffffffffffffffffffffffffffffff16905081600760016101000a81548173ffffffffffffffffffffffffffffffffffffffff021916908373ffffffffffffffffffffffffffffffffffffffff1602179055508173ffffffffffffffffffffffffffffffffffffffff168173ffffffffffffffffffffffffffffffffffffffff167f8be0079c531659141344cd1fd0a4f28419497f9722a3daafe3b4186f6b6457e060405160405180910390a35050565b600080fd5b600073ffffffffffffffffffffffffffffffffffffffff82169050919050565b60006200027b826200024e565b9050919050565b6200028d816200026e565b81146200029957600080fd5b50565b600081519050620002ad8162000282565b92915050565b600060208284031215620002cc57620002cb62000249565b5b6000620002dc848285016200029c565b91505092915050565b600081519050919050565b7f4e487b7100000000000000000000000000000000000000000000000000000000600052604160045260246000fd5b7f4e487b7100000000000000000000000000000000000000000000000000000000600052602260045260246000fd5b600060028204905060018216806200036757607f821691505b6020821081036200037d576200037c6200031f565b5b50919050565b60008190508160005260206000209050919050565b60006020601f8301049050919050565b600082821b905092915050565b600060088302620003e77fffffffffffffffffffffffffffffffffffffffffffffffffffffffffffffffff82620003a8565b620003f38683620003a8565b95508019841693508086168417925050509392505050565b6000819050919050565b6000819050919050565b6000620004406200043a62000434846200040b565b62000415565b6200040b565b9050919050565b6000819050919050565b6200045c836200041f565b620004746200046b8262000447565b848454620003b5565b825550505050565b600090565b6200048b6200047c565b6200049881848462000451565b505050565b5b81811015620004c057620004b460008262000481565b6001810190506200049e565b5050565b601f8211156200050f57620004d98162000383565b620004e48462000398565b81016020851015620004f4578190505b6200050c620005038562000398565b8301826200049d565b50505b505050565b600082821c905092915050565b6000620005346000198460080262000514565b1980831691505092915050565b60006200054f838362000521565b9150826002028217905092915050565b6200056a82620002e5565b67ffffffffffffffff811115620005865762000585620002f0565b5b6200059282546200034e565b6200059f828285620004c4565b600060209050601f831160018114620005d75760008415620005c2578287015190505b620005ce858262000541565b8655506200063e565b601f198416620005e78662000383565b60005b828110156200061157848901518255600182019150602085019450602081019050620005ea565b868310156200063157848901516200062d601f89168262000521565b8355505b6001600288020188555050505b505050505050565b62000651816200026e565b82525050565b60006020820190506200066e600083018462000646565b92915050565b6131d680620006846000396000f3fe608060405234801561001057600080fd5b50600436106101735760003560e01c80635c975abb116100de57806395d89b4111610097578063b88d4fde11610071578063b88d4fde146103fc578063c87b56dd14610418578063e985e9c514610448578063f2fde38b1461047857610173565b806395d89b41146103a65780639d66ad57146103c4578063a22cb465146103e057610173565b80635c975abb146102f65780636352211e1461031457806370a0823114610344578063715018a6146103745780638456cb591461037e5780638da5cb5b1461038857610173565b806323b872dd1161013057806323b872dd1461025e57806338e21cce1461027a5780633f4ba83a146102aa578063407b704e146102b457806342842e0e146102be57806342966c68146102da57610173565b806301ffc9a71461017857806306fdde03146101a8578063081812fc146101c6578063095ea7b3146101f65780631d9adc9a146102125780631dadae8e1461022e575b600080fd5b610192600480360381019061018d9190612418565b610494565b60405161019f9190612460565b60405180910390f35b6101b06104a6565b6040516101bd919061250b565b60405180910390f35b6101e060048036038101906101db9190612563565b610538565b6040516101ed91906125d1565b60405180910390f35b610210600480360381019061020b9190612618565b610554565b005b61022c6004803603810190610227919061278d565b61056a565b005b610248600480360381019061024391906127d6565b610585565b60405161025591906128c1565b60405180910390f35b610278600480360381019061027391906128e3565b6106f7565b005b610294600480360381019061028f91906127d6565b6107f9565b6040516102a19190612460565b60405180910390f35b6102b2610819565b005b6102bc61082b565b005b6102d860048036038101906102d391906128e3565b610a10565b005b6102f460048036038101906102ef9190612563565b610a30565b005b6102fe610a47565b60405161030b9190612460565b60405180910390f35b61032e60048036038101906103299190612563565b610a5e565b60405161033b91906125d1565b60405180910390f35b61035e600480360381019061035991906127d6565b610a70565b60405161036b9190612945565b60405180910390f35b61037c610b2a565b005b610386610b3e565b005b610390610b50565b60405161039d91906125d1565b60405180910390f35b6103ae610b7a565b6040516103bb919061250b565b60405180910390f35b6103de60048036038101906103d991906127d6565b610c0c565b005b6103fa60048036038101906103f5919061298c565b610dfa565b005b61041660048036038101906104119190612a6d565b610e10565b005b610432600480360381019061042d9190612563565b610e35565b60405161043f919061250b565b60405180910390f35b610462600480360381019061045d9190612af0565b610e47565b60405161046f9190612460565b60405180910390f35b610492600480360381019061048d91906127d6565b610edb565b005b600061049f82610f61565b9050919050565b6060600080546104b590612b5f565b80601f01602080910402602001604051908101604052809291908181526020018280546104e190612b5f565b801561052e5780601f106105035761010080835404028352916020019161052e565b820191906000526020600020905b81548152906001019060200180831161051157829003601f168201915b5050505050905090565b600061054382610fc2565b5061054d8261104a565b9050919050565b6105668282610561611087565b61108f565b5050565b6105726110a1565b80600990816105819190612d3c565b5050565b6060600061059283610a70565b905060008167ffffffffffffffff8111156105b0576105af612662565b5b6040519080825280602002602001820160405280156105de5781602001602082028036833780820191505090505b509050600080600854905060005b818110156106ea573073ffffffffffffffffffffffffffffffffffffffff16636352211e826040518263ffffffff1660e01b815260040161062d9190612945565b602060405180830381865afa92505050801561066757506040513d601f19601f820116820180604052508101906106649190612e23565b60015b156106dd578773ffffffffffffffffffffffffffffffffffffffff168173ffffffffffffffffffffffffffffffffffffffff16036106db57818585815181106106b3576106b2612e50565b5b60200260200101818152505083806106ca90612eae565b9450508584036106da57506106ea565b5b505b80806001019150506105ec565b5082945050505050919050565b600073ffffffffffffffffffffffffffffffffffffffff168273ffffffffffffffffffffffffffffffffffffffff16036107695760006040517f64a0ae9200000000000000000000000000000000000000000000000000000000815260040161076091906125d1565b60405180910390fd5b600061077d8383610778611087565b611128565b90508373ffffffffffffffffffffffffffffffffffffffff168173ffffffffffffffffffffffffffffffffffffffff16146107f3578382826040517f64283d7b0000000000000000000000000000000000000000000000000000000081526004016107ea93929190612ef6565b60405180910390fd5b50505050565b600a6020528060005260406000206000915054906101000a900460ff1681565b6108216110a1565b610829611229565b565b600a60003373ffffffffffffffffffffffffffffffffffffffff1673ffffffffffffffffffffffffffffffffffffffff16815260200190815260200160002060009054906101000a900460ff16156108b8576040517f08c379a00000000000000000000000000000000000000000000000000000000081526004016108af90612f79565b60405180910390fd5b6000600860008154809291906108cd90612eae565b9190505590506108dd338261128c565b61097181600980546108ee90612b5f565b80601f016020809104026020016040519081016040528092919081815260200182805461091a90612b5f565b80156109675780601f1061093c57610100808354040283529160200191610967565b820191906000526020600020905b81548152906001019060200180831161094a57829003601f168201915b50505050506112aa565b6001600a60003373ffffffffffffffffffffffffffffffffffffffff1673ffffffffffffffffffffffffffffffffffffffff16815260200190815260200160002060006101000a81548160ff021916908315150217905550803373ffffffffffffffffffffffffffffffffffffffff167f939def1dea692c5e86f82d85507c8d5d21e73c274cdfda87bda0d6f3eb178b2760405160405180910390a350565b610a2b83838360405180602001604052806000815250610e10565b505050565b610a43600082610a3e611087565b611128565b5050565b6000600760009054906101000a900460ff16905090565b6000610a6982610fc2565b9050919050565b60008073ffffffffffffffffffffffffffffffffffffffff168273ffffffffffffffffffffffffffffffffffffffff1603610ae35760006040517f89c62b64000000000000000000000000000000000000000000000000000000008152600401610ada91906125d1565b60405180910390fd5b600360008373ffffffffffffffffffffffffffffffffffffffff1673ffffffffffffffffffffffffffffffffffffffff168152602001908152602001600020549050919050565b610b326110a1565b610b3c6000611306565b565b610b466110a1565b610b4e6113cc565b565b6000600760019054906101000a900473ffffffffffffffffffffffffffffffffffffffff16905090565b606060018054610b8990612b5f565b80601f0160208091040260200160405190810160405280929190818152602001828054610bb590612b5f565b8015610c025780601f10610bd757610100808354040283529160200191610c02565b820191906000526020600020905b815481529060010190602001808311610be557829003601f168201915b5050505050905090565b610c146110a1565b600a60008273ffffffffffffffffffffffffffffffffffffffff1673ffffffffffffffffffffffffffffffffffffffff16815260200190815260200160002060009054906101000a900460ff1615610ca1576040517f08c379a0000000000000000000000000000000000000000000000000000000008152600401610c9890612fe5565b60405180910390fd5b600060086000815480929190610cb690612eae565b919050559050610cc6828261128c565b610d5a8160098054610cd790612b5f565b80601f0160208091040260200160405190810160405280929190818152602001828054610d0390612b5f565b8015610d505780601f10610d2557610100808354040283529160200191610d50565b820191906000526020600020905b815481529060010190602001808311610d3357829003601f168201915b50505050506112aa565b6001600a60008473ffffffffffffffffffffffffffffffffffffffff1673ffffffffffffffffffffffffffffffffffffffff16815260200190815260200160002060006101000a81548160ff021916908315150217905550808273ffffffffffffffffffffffffffffffffffffffff167f939def1dea692c5e86f82d85507c8d5d21e73c274cdfda87bda0d6f3eb178b2760405160405180910390a35050565b610e0c610e05611087565b838361142f565b5050565b610e1b8484846106f7565b610e2f610e26611087565b8585858561159e565b50505050565b6060610e408261174f565b9050919050565b6000600560008473ffffffffffffffffffffffffffffffffffffffff1673ffffffffffffffffffffffffffffffffffffffff16815260200190815260200160002060008373ffffffffffffffffffffffffffffffffffffffff1673ffffffffffffffffffffffffffffffffffffffff16815260200190815260200160002060009054906101000a900460ff16905092915050565b610ee36110a1565b600073ffffffffffffffffffffffffffffffffffffffff168173ffffffffffffffffffffffffffffffffffffffff1603610f555760006040517f1e4fbdf7000000000000000000000000000000000000000000000000000000008152600401610f4c91906125d1565b60405180910390fd5b610f5e81611306565b50565b6000634906490660e01b7bffffffffffffffffffffffffffffffffffffffffffffffffffffffff1916827bffffffffffffffffffffffffffffffffffffffffffffffffffffffff19161480610fbb5750610fba82611862565b5b9050919050565b600080610fce83611944565b9050600073ffffffffffffffffffffffffffffffffffffffff168173ffffffffffffffffffffffffffffffffffffffff160361104157826040517f7e2732890000000000000000000000000000000000000000000000000000000081526004016110389190612945565b60405180910390fd5b80915050919050565b60006004600083815260200190815260200160002060009054906101000a900473ffffffffffffffffffffffffffffffffffffffff169050919050565b600033905090565b61109c8383836001611981565b505050565b6110a9611087565b73ffffffffffffffffffffffffffffffffffffffff166110c7610b50565b73ffffffffffffffffffffffffffffffffffffffff1614611126576110ea611087565b6040517f118cdaa700000000000000000000000000000000000000000000000000000000815260040161111d91906125d1565b60405180910390fd5b565b60008061113484611944565b90506000611143868686611b46565b9050600073ffffffffffffffffffffffffffffffffffffffff168273ffffffffffffffffffffffffffffffffffffffff16141580156111ae57508573ffffffffffffffffffffffffffffffffffffffff168273ffffffffffffffffffffffffffffffffffffffff1614155b1561121d5760006111be83610a70565b0361121c576000600a60008473ffffffffffffffffffffffffffffffffffffffff1673ffffffffffffffffffffffffffffffffffffffff16815260200190815260200160002060006101000a81548160ff0219169083151502179055505b5b80925050509392505050565b611231611b64565b6000600760006101000a81548160ff0219169083151502179055507f5db9ee0a495bf2e6ff9c91a7834c1ba4fdd244a5e8aa4e537bd38aeae4b073aa611275611087565b60405161128291906125d1565b60405180910390a1565b6112a6828260405180602001604052806000815250611ba4565b5050565b806006600084815260200190815260200160002090816112ca9190612d3c565b507ff8e1a15aba9398e019f0b49df1a4fde98ee17ae345cb5f6b5e2c27f5033e8ce7826040516112fa9190612945565b60405180910390a15050565b6000600760019054906101000a900473ffffffffffffffffffffffffffffffffffffffff16905081600760016101000a81548173ffffffffffffffffffffffffffffffffffffffff021916908373ffffffffffffffffffffffffffffffffffffffff1602179055508173ffffffffffffffffffffffffffffffffffffffff168173ffffffffffffffffffffffffffffffffffffffff167f8be0079c531659141344cd1fd0a4f28419497f9722a3daafe3b4186f6b6457e060405160405180910390a35050565b6113d4611bc8565b6001600760006101000a81548160ff0219169083151502179055507f62e78cea01bee320cd4e420270b5ea74000d11b0c9f74754ebdbfc544b05a258611418611087565b60405161142591906125d1565b60405180910390a1565b600073ffffffffffffffffffffffffffffffffffffffff168273ffffffffffffffffffffffffffffffffffffffff16036114a057816040517f5b08ba1800000000000000000000000000000000000000000000000000000000815260040161149791906125d1565b60405180910390fd5b80600560008573ffffffffffffffffffffffffffffffffffffffff1673ffffffffffffffffffffffffffffffffffffffff16815260200190815260200160002060008473ffffffffffffffffffffffffffffffffffffffff1673ffffffffffffffffffffffffffffffffffffffff16815260200190815260200160002060006101000a81548160ff0219169083151502179055508173ffffffffffffffffffffffffffffffffffffffff168373ffffffffffffffffffffffffffffffffffffffff167f17307eab39ab6107e8899845ad3d59bd9653f200f220920489ca2b5937696c31836040516115919190612460565b60405180910390a3505050565b60008373ffffffffffffffffffffffffffffffffffffffff163b1115611748578273ffffffffffffffffffffffffffffffffffffffff1663150b7a02868685856040518563ffffffff1660e01b81526004016115fd949392919061305a565b6020604051808303816000875af192505050801561163957506040513d601f19601f8201168201806040525081019061163691906130bb565b60015b6116bd573d8060008114611669576040519150601f19603f3d011682016040523d82523d6000602084013e61166e565b606091505b5060008151036116b557836040517f64a0ae920000000000000000000000000000000000000000000000000000000081526004016116ac91906125d1565b60405180910390fd5b805181602001fd5b63150b7a0260e01b7bffffffffffffffffffffffffffffffffffffffffffffffffffffffff1916817bffffffffffffffffffffffffffffffffffffffffffffffffffffffff19161461174657836040517f64a0ae9200000000000000000000000000000000000000000000000000000000815260040161173d91906125d1565b60405180910390fd5b505b5050505050565b606061175a82610fc2565b50600060066000848152602001908152602001600020805461177b90612b5f565b80601f01602080910402602001604051908101604052809291908181526020018280546117a790612b5f565b80156117f45780601f106117c9576101008083540402835291602001916117f4565b820191906000526020600020905b8154815290600101906020018083116117d757829003601f168201915b505050505090506000611805611c09565b9050600081510361181a57819250505061185d565b60008251111561184f578082604051602001611837929190613124565b6040516020818303038152906040529250505061185d565b61185884611c20565b925050505b919050565b60007f80ac58cd000000000000000000000000000000000000000000000000000000007bffffffffffffffffffffffffffffffffffffffffffffffffffffffff1916827bffffffffffffffffffffffffffffffffffffffffffffffffffffffff1916148061192d57507f5b5e139f000000000000000000000000000000000000000000000000000000007bffffffffffffffffffffffffffffffffffffffffffffffffffffffff1916827bffffffffffffffffffffffffffffffffffffffffffffffffffffffff1916145b8061193d575061193c82611c89565b5b9050919050565b60006002600083815260200190815260200160002060009054906101000a900473ffffffffffffffffffffffffffffffffffffffff169050919050565b80806119ba5750600073ffffffffffffffffffffffffffffffffffffffff168273ffffffffffffffffffffffffffffffffffffffff1614155b15611aee5760006119ca84610fc2565b9050600073ffffffffffffffffffffffffffffffffffffffff168373ffffffffffffffffffffffffffffffffffffffff1614158015611a3557508273ffffffffffffffffffffffffffffffffffffffff168173ffffffffffffffffffffffffffffffffffffffff1614155b8015611a485750611a468184610e47565b155b15611a8a57826040517fa9fbf51f000000000000000000000000000000000000000000000000000000008152600401611a8191906125d1565b60405180910390fd5b8115611aec57838573ffffffffffffffffffffffffffffffffffffffff168273ffffffffffffffffffffffffffffffffffffffff167f8c5be1e5ebec7d5bd14f71427d1e84f3dd0314c0f7b2291e5b200ac8c7c3b92560405160405180910390a45b505b836004600085815260200190815260200160002060006101000a81548173ffffffffffffffffffffffffffffffffffffffff021916908373ffffffffffffffffffffffffffffffffffffffff16021790555050505050565b6000611b50611bc8565b611b5b848484611cf3565b90509392505050565b611b6c610a47565b611ba2576040517f8dfc202b00000000000000000000000000000000000000000000000000000000815260040160405180910390fd5b565b611bae8383611f0d565b611bc3611bb9611087565b600085858561159e565b505050565b611bd0610a47565b15611c07576040517fd93c066500000000000000000000000000000000000000000000000000000000815260040160405180910390fd5b565b606060405180602001604052806000815250905090565b6060611c2b82610fc2565b506000611c36611c09565b90506000815111611c565760405180602001604052806000815250611c81565b80611c6084612006565b604051602001611c71929190613124565b6040516020818303038152906040525b915050919050565b60007f01ffc9a7000000000000000000000000000000000000000000000000000000007bffffffffffffffffffffffffffffffffffffffffffffffffffffffff1916827bffffffffffffffffffffffffffffffffffffffffffffffffffffffff1916149050919050565b600080611cff84611944565b9050600073ffffffffffffffffffffffffffffffffffffffff168373ffffffffffffffffffffffffffffffffffffffff1614611d4157611d408184866120d4565b5b600073ffffffffffffffffffffffffffffffffffffffff168173ffffffffffffffffffffffffffffffffffffffff1614611dd257611d83600085600080611981565b6001600360008373ffffffffffffffffffffffffffffffffffffffff1673ffffffffffffffffffffffffffffffffffffffff168152602001908152602001600020600082825403925050819055505b600073ffffffffffffffffffffffffffffffffffffffff168573ffffffffffffffffffffffffffffffffffffffff1614611e55576001600360008773ffffffffffffffffffffffffffffffffffffffff1673ffffffffffffffffffffffffffffffffffffffff168152602001908152602001600020600082825401925050819055505b846002600086815260200190815260200160002060006101000a81548173ffffffffffffffffffffffffffffffffffffffff021916908373ffffffffffffffffffffffffffffffffffffffff160217905550838573ffffffffffffffffffffffffffffffffffffffff168273ffffffffffffffffffffffffffffffffffffffff167fddf252ad1be2c89b69c2b068fc378daa952ba7f163c4a11628f55a4df523b3ef60405160405180910390a4809150509392505050565b600073ffffffffffffffffffffffffffffffffffffffff168273ffffffffffffffffffffffffffffffffffffffff1603611f7f5760006040517f64a0ae92000000000000000000000000000000000000000000000000000000008152600401611f7691906125d1565b60405180910390fd5b6000611f8d83836000611128565b9050600073ffffffffffffffffffffffffffffffffffffffff168173ffffffffffffffffffffffffffffffffffffffff16146120015760006040517f73c6ac6e000000000000000000000000000000000000000000000000000000008152600401611ff891906125d1565b60405180910390fd5b505050565b60606000600161201584612198565b01905060008167ffffffffffffffff81111561203457612033612662565b5b6040519080825280601f01601f1916602001820160405280156120665781602001600182028036833780820191505090505b509050600082602001820190505b6001156120c9578080600190039150507f3031323334353637383961626364656600000000000000000000000000000000600a86061a8153600a85816120bd576120bc613148565b5b04945060008503612074575b819350505050919050565b6120df8383836122eb565b61219357600073ffffffffffffffffffffffffffffffffffffffff168373ffffffffffffffffffffffffffffffffffffffff160361215457806040517f7e27328900000000000000000000000000000000000000000000000000000000815260040161214b9190612945565b60405180910390fd5b81816040517f177e802f00000000000000000000000000000000000000000000000000000000815260040161218a929190613177565b60405180910390fd5b505050565b600080600090507a184f03e93ff9f4daa797ed6e38ed64bf6a1f01000000000000000083106121f6577a184f03e93ff9f4daa797ed6e38ed64bf6a1f01000000000000000083816121ec576121eb613148565b5b0492506040810190505b6d04ee2d6d415b85acef81000000008310612233576d04ee2d6d415b85acef8100000000838161222957612228613148565b5b0492506020810190505b662386f26fc10000831061226257662386f26fc10000838161225857612257613148565b5b0492506010810190505b6305f5e100831061228b576305f5e100838161228157612280613148565b5b0492506008810190505b61271083106122b05761271083816122a6576122a5613148565b5b0492506004810190505b606483106122d357606483816122c9576122c8613148565b5b0492506002810190505b600a83106122e2576001810190505b80915050919050565b60008073ffffffffffffffffffffffffffffffffffffffff168373ffffffffffffffffffffffffffffffffffffffff16141580156123a357508273ffffffffffffffffffffffffffffffffffffffff168473ffffffffffffffffffffffffffffffffffffffff16148061236457506123638484610e47565b5b806123a257508273ffffffffffffffffffffffffffffffffffffffff1661238a8361104a565b73ffffffffffffffffffffffffffffffffffffffff16145b5b90509392505050565b6000604051905090565b600080fd5b600080fd5b60007fffffffff0000000000000000000000000000000000000000000000000000000082169050919050565b6123f5816123c0565b811461240057600080fd5b50565b600081359050612412816123ec565b92915050565b60006020828403121561242e5761242d6123b6565b5b600061243c84828501612403565b91505092915050565b60008115159050919050565b61245a81612445565b82525050565b60006020820190506124756000830184612451565b92915050565b600081519050919050565b600082825260208201905092915050565b60005b838110156124b557808201518184015260208101905061249a565b60008484015250505050565b6000601f19601f8301169050919050565b60006124dd8261247b565b6124e78185612486565b93506124f7818560208601612497565b612500816124c1565b840191505092915050565b6000602082019050818103600083015261252581846124d2565b905092915050565b6000819050919050565b6125408161252d565b811461254b57600080fd5b50565b60008135905061255d81612537565b92915050565b600060208284031215612579576125786123b6565b5b60006125878482850161254e565b91505092915050565b600073ffffffffffffffffffffffffffffffffffffffff82169050919050565b60006125bb82612590565b9050919050565b6125cb816125b0565b82525050565b60006020820190506125e660008301846125c2565b92915050565b6125f5816125b0565b811461260057600080fd5b50565b600081359050612612816125ec565b92915050565b6000806040838503121561262f5761262e6123b6565b5b600061263d85828601612603565b925050602061264e8582860161254e565b9150509250929050565b600080fd5b600080fd5b7f4e487b7100000000000000000000000000000000000000000000000000000000600052604160045260246000fd5b61269a826124c1565b810181811067ffffffffffffffff821117156126b9576126b8612662565b5b80604052505050565b60006126cc6123ac565b90506126d88282612691565b919050565b600067ffffffffffffffff8211156126f8576126f7612662565b5b612701826124c1565b9050602081019050919050565b82818337600083830152505050565b600061273061272b846126dd565b6126c2565b90508281526020810184848401111561274c5761274b61265d565b5b61275784828561270e565b509392505050565b600082601f83011261277457612773612658565b5b813561278484826020860161271d565b91505092915050565b6000602082840312156127a3576127a26123b6565b5b600082013567ffffffffffffffff8111156127c1576127c06123bb565b5b6127cd8482850161275f565b91505092915050565b6000602082840312156127ec576127eb6123b6565b5b60006127fa84828501612603565b91505092915050565b600081519050919050565b600082825260208201905092915050565b6000819050602082019050919050565b6128388161252d565b82525050565b600061284a838361282f565b60208301905092915050565b6000602082019050919050565b600061286e82612803565b612878818561280e565b93506128838361281f565b8060005b838110156128b457815161289b888261283e565b97506128a683612856565b925050600181019050612887565b5085935050505092915050565b600060208201905081810360008301526128db8184612863565b905092915050565b6000806000606084860312156128fc576128fb6123b6565b5b600061290a86828701612603565b935050602061291b86828701612603565b925050604061292c8682870161254e565b9150509250925092565b61293f8161252d565b82525050565b600060208201905061295a6000830184612936565b92915050565b61296981612445565b811461297457600080fd5b50565b60008135905061298681612960565b92915050565b600080604083850312156129a3576129a26123b6565b5b60006129b185828601612603565b92505060206129c285828601612977565b9150509250929050565b600067ffffffffffffffff8211156129e7576129e6612662565b5b6129f0826124c1565b9050602081019050919050565b6000612a10612a0b846129cc565b6126c2565b905082815260208101848484011115612a2c57612a2b61265d565b5b612a3784828561270e565b509392505050565b600082601f830112612a5457612a53612658565b5b8135612a648482602086016129fd565b91505092915050565b60008060008060808587031215612a8757612a866123b6565b5b6000612a9587828801612603565b9450506020612aa687828801612603565b9350506040612ab78782880161254e565b925050606085013567ffffffffffffffff811115612ad857612ad76123bb565b5b612ae487828801612a3f565b91505092959194509250565b60008060408385031215612b0757612b066123b6565b5b6000612b1585828601612603565b9250506020612b2685828601612603565b9150509250929050565b7f4e487b7100000000000000000000000000000000000000000000000000000000600052602260045260246000fd5b60006002820490506001821680612b7757607f821691505b602082108103612b8a57612b89612b30565b5b50919050565b60008190508160005260206000209050919050565b60006020601f8301049050919050565b600082821b905092915050565b600060088302612bf27fffffffffffffffffffffffffffffffffffffffffffffffffffffffffffffffff82612bb5565b612bfc8683612bb5565b95508019841693508086168417925050509392505050565b6000819050919050565b6000612c39612c34612c2f8461252d565b612c14565b61252d565b9050919050565b6000819050919050565b612c5383612c1e565b612c67612c5f82612c40565b848454612bc2565b825550505050565b600090565b612c7c612c6f565b612c87818484612c4a565b505050565b5b81811015612cab57612ca0600082612c74565b600181019050612c8d565b5050565b601f821115612cf057612cc181612b90565b612cca84612ba5565b81016020851015612cd9578190505b612ced612ce585612ba5565b830182612c8c565b50505b505050565b600082821c905092915050565b6000612d1360001984600802612cf5565b1980831691505092915050565b6000612d2c8383612d02565b9150826002028217905092915050565b612d458261247b565b67ffffffffffffffff811115612d5e57612d5d612662565b5b612d688254612b5f565b612d73828285612caf565b600060209050601f831160018114612da65760008415612d94578287015190505b612d9e8582612d20565b865550612e06565b601f198416612db486612b90565b60005b82811015612ddc57848901518255600182019150602085019450602081019050612db7565b86831015612df95784890151612df5601f891682612d02565b8355505b6001600288020188555050505b505050505050565b600081519050612e1d816125ec565b92915050565b600060208284031215612e3957612e386123b6565b5b6000612e4784828501612e0e565b91505092915050565b7f4e487b7100000000000000000000000000000000000000000000000000000000600052603260045260246000fd5b7f4e487b7100000000000000000000000000000000000000000000000000000000600052601160045260246000fd5b6000612eb98261252d565b91507fffffffffffffffffffffffffffffffffffffffffffffffffffffffffffffffff8203612eeb57612eea612e7f565b5b600182019050919050565b6000606082019050612f0b60008301866125c2565b612f186020830185612936565b612f2560408301846125c2565b949350505050565b7f416c7265616479206d696e746564000000000000000000000000000000000000600082015250565b6000612f63600e83612486565b9150612f6e82612f2d565b602082019050919050565b60006020820190508181036000830152612f9281612f56565b9050919050565b7f526563697069656e7420616c7265616479206d696e7465640000000000000000600082015250565b6000612fcf601883612486565b9150612fda82612f99565b602082019050919050565b60006020820190508181036000830152612ffe81612fc2565b9050919050565b600081519050919050565b600082825260208201905092915050565b600061302c82613005565b6130368185613010565b9350613046818560208601612497565b61304f816124c1565b840191505092915050565b600060808201905061306f60008301876125c2565b61307c60208301866125c2565b6130896040830185612936565b818103606083015261309b8184613021565b905095945050505050565b6000815190506130b5816123ec565b92915050565b6000602082840312156130d1576130d06123b6565b5b60006130df848285016130a6565b91505092915050565b600081905092915050565b60006130fe8261247b565b61310881856130e8565b9350613118818560208601612497565b80840191505092915050565b600061313082856130f3565b915061313c82846130f3565b91508190509392505050565b7f4e487b7100000000000000000000000000000000000000000000000000000000600052601260045260246000fd5b600060408201905061318c60008301856125c2565b6131996020830184612936565b939250505056fea2646970667358221220fe38b1bb512b2f9b942fdb44075b1bba4b20a7248fcad571df6cc3ebf61d05f664736f6c63430008180033697066733a2f2f6261666b72656964327774763635696665327a6b32776963346578666e357768786b34676379346c793479626676787579776a74766d6970733265",
  "linkReferences": {},
  "deployedLinkReferences": {}
}