{
  "_format": "hh-sol-artifact-1",
  "contractName": "NexusExplorerBadge",
  "sourceName": "contracts/NexusExplorerBadge.sol",
  "abi": [
    {
      "inputs": [
        {
          "internalType": "address",
          "name": "initialOwner",
          "type": "address"
        }
      ],
      "stateMutability": "nonpayable",
      "type": "constructor"
    },
    {
      "inputs": [
        {
          "internalType": "address",
          "name": "sender",
          "type": "address"
        },
        {
          "internalType": "uint256",
          "name": "tokenId",
          "type": "uint256"
        },
        {
          "internalType": "address",
          "name": "owner",
          "type": "address"
        }
      ],
      "name": "ERC721IncorrectOwner",
      "type": "error"
    },
    {
      "inputs": [
        {
          "internalType": "address",
          "name": "operator",
          "type": "address"
        },
        {
          "internalType": "uint256",
          "name": "tokenId",
          "type": "uint256"
        }
      ],
      "name": "ERC721InsufficientApproval",
      "type": "error"
    },
    {
      "inputs": [
        {
          "internalType": "address",
          "name": "approver",
          "type": "address"
        }
      ],
      "name": "ERC721InvalidApprover",
      "type": "error"
    },
    {
      "inputs": [
        {
          "internalType": "address",
          "name": "operator",
          "type": "address"
        }
      ],
      "name": "ERC721InvalidOperator",
      "type": "error"
    },
    {
      "inputs": [
        {
          "internalType": "address",
          "name": "owner",
          "type": "address"
        }
      ],
      "name": "ERC721InvalidOwner",
      "type": "error"
    },
    {
      "inputs": [
        {
          "internalType": "address",
          "name": "receiver",
          "type": "address"
        }
      ],
      "name": "ERC721InvalidReceiver",
      "type": "error"
    },
    {
      "inputs": [
        {
          "internalType": "address",
          "name": "sender",
          "type": "address"
        }
      ],
      "name": "ERC721InvalidSender",
      "type": "error"
    },
    {
      "inputs": [
        {
          "internalType": "uint256",
          "name": "tokenId",
          "type": "uint256"
        }
      ],
      "name": "ERC721NonexistentToken",
      "type": "error"
    },
    {
      "inputs": [],
      "name": "EnforcedPause",
      "type": "error"
    },
    {
      "inputs": [],
      "name": "ExpectedPause",
      "type": "error"
    },
    {
      "inputs": [
        {
          "internalType": "address",
          "name": "owner",
          "type": "address"
        }
      ],
      "name": "OwnableInvalidOwner",
      "type": "error"
    },
    {
      "inputs": [
        {
          "internalType": "address",
          "name": "account",
          "type": "address"
        }
      ],
      "name": "OwnableUnauthorizedAccount",
      "type": "error"
    },
    {
      "anonymous": false,
      "inputs": [
        {
          "indexed": true,
          "internalType": "address",
          "name": "owner",
          "type": "address"
        },
        {
          "indexed": true,
          "internalType": "address",
          "name": "approved",
          "type": "address"
        },
        {
          "indexed": true,
          "internalType": "uint256",
          "name": "tokenId",
          "type": "uint256"
        }
      ],
      "name": "Approval",
      "type": "event"
    },
    {
      "anonymous": false,
      "inputs": [
        {
          "indexed": true,
          "internalType": "address",
          "name": "owner",
          "type": "address"
        },
        {
          "indexed": true,
          "internalType": "address",
          "name": "operator",
          "type": "address"
        },
        {
          "indexed": false,
          "internalType": "bool",
          "name": "approved",
          "type": "bool"
        }
      ],
      "name": "ApprovalForAll",
      "type": "event"
    },
    {
      "anonymous": false,
      "inputs": [
        {
          "indexed": false,
          "internalType": "uint256",
          "name": "_fromTokenId",
          "type": "uint256"
        },
        {
          "indexed": false,
          "internalType": "uint256",
          "name": "_toTokenId",
          "type": "uint256"
        }
      ],
      "name": "BatchMetadataUpdate",
      "type": "event"
    },
    {
      "anonymous": false,
      "inputs": [
        {
          "indexed": true,
          "internalType": "address",
          "name": "recipient",
          "type": "address"
        },
        {
          "indexed": true,
          "internalType": "uint256",
          "name": "tokenId",
          "type": "uint256"
        }
      ],
      "name": "ExplorerBadgeMinted",
      "type": "event"
    },
    {
      "anonymous": false,
      "inputs": [
        {
          "indexed": false,
          "internalType": "uint256",
          "name": "_tokenId",
          "type": "uint256"
        }
      ],
      "name": "MetadataUpdate",
      "type": "event"
    },
    {
      "anonymous": false,
      "inputs": [
        {
          "indexed": true,
          "internalType": "address",
          "name": "previousOwner",
          "type": "address"
        },
        {
          "indexed": true,
          "internalType": "address",
          "name": "newOwner",
          "type": "address"
        }
      ],
      "name": "OwnershipTransferred",
      "type": "event"
    },
    {
      "anonymous": false,
      "inputs": [
        {
          "indexed": false,
          "internalType": "address",
          "name": "account",
          "type": "address"
        }
      ],
      "name": "Paused",
      "type": "event"
    },
    {
      "anonymous": false,
      "inputs": [
        {
          "indexed": true,
          "internalType": "address",
          "name": "from",
          "type": "address"
        },
        {
          "indexed": true,
          "internalType": "address",
          "name": "to",
          "type": "address"
        },
        {
          "indexed": true,
          "internalType": "uint256",
          "name": "tokenId",
          "type": "uint256"
        }
      ],
      "name": "Transfer",
      "type": "event"
    },
    {
      "anonymous": false,
      "inputs": [
        {
          "indexed": false,
          "internalType": "address",
          "name": "account",
          "type": "address"
        }
      ],
      "name": "Unpaused",
      "type": "event"
    },
    {
      "inputs": [
        {
          "internalType": "address",
          "name": "to",
          "type": "address"
        },
        {
          "internalType": "uint256",
          "name": "tokenId",
          "type": "uint256"
        }
      ],
      "name": "approve",
      "outputs": [],
      "stateMutability": "nonpayable",
      "type": "function"
    },
    {
      "inputs": [
        {
          "internalType": "address",
          "name": "owner",
          "type": "address"
        }
      ],
      "name": "balanceOf",
      "outputs": [
        {
          "internalType": "uint256",
          "name": "",
          "type": "uint256"
        }
      ],
      "stateMutability": "view",
      "type": "function"
    },
    {
      "inputs": [
        {
          "internalType": "uint256",
          "name": "tokenId",
          "type": "uint256"
        }
      ],
      "name": "burn",
      "outputs": [],
      "stateMutability": "nonpayable",
      "type": "function"
    },
    {
      "inputs": [
        {
          "internalType": "uint256",
          "name": "tokenId",
          "type": "uint256"
        }
      ],
      "name": "getApproved",
      "outputs": [
        {
          "internalType": "address",
          "name": "",
          "type": "address"
        }
      ],
      "stateMutability": "view",
      "type": "function"
    },
    {
      "inputs": [
        {
          "internalType": "address",
          "name": "owner",
          "type": "address"
        }
      ],
      "name": "getNFTsByAddress",
      "outputs": [
        {
          "internalType": "uint256[]",
          "name": "",
          "type": "uint256[]"
        }
      ],
      "stateMutability": "view",
      "type": "function"
    },
    {
      "inputs": [
        {
          "internalType": "address",
          "name": "",
          "type": "address"
        }
      ],
      "name": "hasMinted",
      "outputs": [
        {
          "internalType": "bool",
          "name": "",
          "type": "bool"
        }
      ],
      "stateMutability": "view",
      "type": "function"
    },
    {
      "inputs": [
        {
          "internalType": "address",
          "name": "owner",
          "type": "address"
        },
        {
          "internalType": "address",
          "name": "operator",
          "type": "address"
        }
      ],
      "name": "isApprovedForAll",
      "outputs": [
        {
          "internalType": "bool",
          "name": "",
          "type": "bool"
        }
      ],
      "stateMutability": "view",
      "type": "function"
    },
    {
      "inputs": [],
      "name": "mintExplorerBadge",
      "outputs": [],
      "stateMutability": "nonpayable",
      "type": "function"
    },
    {
      "inputs": [],
      "name": "name",
      "outputs": [
        {
          "internalType": "string",
          "name": "",
          "type": "string"
        }
      ],
      "stateMutability": "view",
      "type": "function"
    },
    {
      "inputs": [],
      "name": "owner",
      "outputs": [
        {
          "internalType": "address",
          "name": "",
          "type": "address"
        }
      ],
      "stateMutability": "view",
      "type": "function"
    },
    {
      "inputs": [
        {
          "internalType": "uint256",
          "name": "tokenId",
          "type": "uint256"
        }
      ],
      "name": "ownerOf",
      "outputs": [
        {
          "internalType": "address",
          "name": "",
          "type": "address"
        }
      ],
      "stateMutability": "view",
      "type": "function"
    },
    {
      "inputs": [],
      "name": "pause",
      "outputs": [],
      "stateMutability": "nonpayable",
      "type": "function"
    },
    {
      "inputs": [],
      "name": "paused",
      "outputs": [
        {
          "internalType": "bool",
          "name": "",
          "type": "bool"
        }
      ],
      "stateMutability": "view",
      "type": "function"
    },
    {
      "inputs": [],
      "name": "renounceOwnership",
      "outputs": [],
      "stateMutability": "nonpayable",
      "type": "function"
    },
    {
      "inputs": [
        {
          "internalType": "address",
          "name": "from",
          "type": "address"
        },
        {
          "internalType": "address",
          "name": "to",
          "type": "address"
        },
        {
          "internalType": "uint256",
          "name": "tokenId",
          "type": "uint256"
        }
      ],
      "name": "safeTransferFrom",
      "outputs": [],
      "stateMutability": "nonpayable",
      "type": "function"
    },
    {
      "inputs": [
        {
          "internalType": "address",
          "name": "from",
          "type": "address"
        },
        {
          "internalType": "address",
          "name": "to",
          "type": "address"
        },
        {
          "internalType": "uint256",
          "name": "tokenId",
          "type": "uint256"
        },
        {
          "internalType": "bytes",
          "name": "data",
          "type": "bytes"
        }
      ],
      "name": "safeTransferFrom",
      "outputs": [],
      "stateMutability": "nonpayable",
      "type": "function"
    },
    {
      "inputs": [
        {
          "internalType": "address",
          "name": "operator",
          "type": "address"
        },
        {
          "internalType": "bool",
          "name": "approved",
          "type": "bool"
        }
      ],
      "name": "setApprovalForAll",
      "outputs": [],
      "stateMutability": "nonpayable",
      "type": "function"
    },
    {
      "inputs": [
        {
          "internalType": "bytes4",
          "name": "interfaceId",
          "type": "bytes4"
        }
      ],
      "name": "supportsInterface",
      "outputs": [
        {
          "internalType": "bool",
          "name": "",
          "type": "bool"
        }
      ],
      "stateMutability": "view",
      "type": "function"
    },
    {
      "inputs": [],
      "name": "symbol",
      "outputs": [
        {
          "internalType": "string",
          "name": "",
          "type": "string"
        }
      ],
      "stateMutability": "view",
      "type": "function"
    },
    {
      "inputs": [
        {
          "internalType": "uint256",
          "name": "tokenId",
          "type": "uint256"
        }
      ],
      "name": "tokenURI",
      "outputs": [
        {
          "internalType": "string",
          "name": "",
          "type": "string"
        }
      ],
      "stateMutability": "view",
      "type": "function"
    },
    {
      "inputs": [
        {
          "internalType": "address",
          "name": "from",
          "type": "address"
        },
        {
          "internalType": "address",
          "name": "to",
          "type": "address"
        },
        {
          "internalType": "uint256",
          "name": "tokenId",
          "type": "uint256"
        }
      ],
      "name": "transferFrom",
      "outputs": [],
      "stateMutability": "nonpayable",
      "type": "function"
    },
    {
      "inputs": [
        {
          "internalType": "address",
          "name": "newOwner",
          "type": "address"
        }
      ],
      "name": "transferOwnership",
      "outputs": [],
      "stateMutability": "nonpayable",
      "type": "function"
    },
    {
      "inputs": [],
      "name": "unpause",
      "outputs": [],
      "stateMutability": "nonpayable",
      "type": "function"
    },
    {
      "inputs": [
        {
          "internalType": "string",
          "name": "newUri",
          "type": "string"
        }
      ],
      "name": "updateBaseBadgeURI",
      "outputs": [],
      "stateMutability": "nonpayable",
      "type": "function"
    }
  ],
  "bytecode": "0x60806040523480156200001157600080fd5b5060405162003520380380620035208339818101604052810190620000379190620002b3565b806040518060400160405280601481526020017f4e65787573204578706c6f7265722042616467650000000000000000000000008152506040518060400160405280600581526020017f4e584558500000000000000000000000000000000000000000000000000000008152508160009081620000b591906200055f565b508060019081620000c791906200055f565b505050600073ffffffffffffffffffffffffffffffffffffffff168173ffffffffffffffffffffffffffffffffffffffff16036200013f5760006040517f1e4fbdf700000000000000000000000000000000000000000000000000000000815260040162000136919062000657565b60405180910390fd5b62000150816200018360201b60201c565b50604051806080016040528060428152602001620034de60429139600990816200017b91906200055f565b505062000674565b6000600760019054906101000a900473ffffffffffffffffffffffffffffffffffffffff16905081600760016101000a81548173ffffffffffffffffffffffffffffffffffffffff021916908373ffffffffffffffffffffffffffffffffffffffff1602179055508173ffffffffffffffffffffffffffffffffffffffff168173ffffffffffffffffffffffffffffffffffffffff167f8be0079c531659141344cd1fd0a4f28419497f9722a3daafe3b4186f6b6457e060405160405180910390a35050565b600080fd5b600073ffffffffffffffffffffffffffffffffffffffff82169050919050565b60006200027b826200024e565b9050919050565b6200028d816200026e565b81146200029957600080fd5b50565b600081519050620002ad8162000282565b92915050565b600060208284031215620002cc57620002cb62000249565b5b6000620002dc848285016200029c565b91505092915050565b600081519050919050565b7f4e487b7100000000000000000000000000000000000000000000000000000000600052604160045260246000fd5b7f4e487b7100000000000000000000000000000000000000000000000000000000600052602260045260246000fd5b600060028204905060018216806200036757607f821691505b6020821081036200037d576200037c6200031f565b5b50919050565b60008190508160005260206000209050919050565b60006020601f8301049050919050565b600082821b905092915050565b600060088302620003e77fffffffffffffffffffffffffffffffffffffffffffffffffffffffffffffffff82620003a8565b620003f38683620003a8565b95508019841693508086168417925050509392505050565b6000819050919050565b6000819050919050565b6000620004406200043a62000434846200040b565b62000415565b6200040b565b9050919050565b6000819050919050565b6200045c836200041f565b620004746200046b8262000447565b848454620003b5565b825550505050565b600090565b6200048b6200047c565b6200049881848462000451565b505050565b5b81811015620004c057620004b460008262000481565b6001810190506200049e565b5050565b601f8211156200050f57620004d98162000383565b620004e48462000398565b81016020851015620004f4578190505b6200050c620005038562000398565b8301826200049d565b50505b505050565b600082821c905092915050565b6000620005346000198460080262000514565b1980831691505092915050565b60006200054f838362000521565b9150826002028217905092915050565b6200056a82620002e5565b67ffffffffffffffff811115620005865762000585620002f0565b5b6200059282546200034e565b6200059f828285620004c4565b600060209050601f831160018114620005d75760008415620005c2578287015190505b620005ce858262000541565b8655506200063e565b601f198416620005e78662000383565b60005b828110156200061157848901518255600182019150602085019450602081019050620005ea565b868310156200063157848901516200062d601f89168262000521565b8355505b6001600288020188555050505b505050505050565b62000651816200026e565b82525050565b60006020820190506200066e600083018462000646565b92915050565b612e5a80620006846000396000f3fe608060405234801561001057600080fd5b50600436106101585760003560e01c80635c975abb116100c357806395d89b411161007c57806395d89b411461038b578063a22cb465146103a9578063b88d4fde146103c5578063c87b56dd146103e1578063e985e9c514610411578063f2fde38b1461044157610158565b80635c975abb146102db5780636352211e146102f957806370a0823114610329578063715018a6146103595780638456cb59146103635780638da5cb5b1461036d57610158565b806323b872dd1161011557806323b872dd1461024357806338e21cce1461025f5780633f4ba83a1461028f578063407b704e1461029957806342842e0e146102a357806342966c68146102bf57610158565b806301ffc9a71461015d57806306fdde031461018d578063081812fc146101ab578063095ea7b3146101db5780631d9adc9a146101f75780631dadae8e14610213575b600080fd5b61017760048036038101906101729190612108565b61045d565b6040516101849190612150565b60405180910390f35b61019561046f565b6040516101a291906121fb565b60405180910390f35b6101c560048036038101906101c09190612253565b610501565b6040516101d291906122c1565b60405180910390f35b6101f560048036038101906101f09190612308565b61051d565b005b610211600480360381019061020c919061247d565b610533565b005b61022d600480360381019061022891906124c6565b61054e565b60405161023a91906125b1565b60405180910390f35b61025d600480360381019061025891906125d3565b6106c0565b005b610279600480360381019061027491906124c6565b6107c2565b6040516102869190612150565b60405180910390f35b6102976107e2565b005b6102a16107f4565b005b6102bd60048036038101906102b891906125d3565b6109d9565b005b6102d960048036038101906102d49190612253565b6109f9565b005b6102e3610a10565b6040516102f09190612150565b60405180910390f35b610313600480360381019061030e9190612253565b610a27565b60405161032091906122c1565b60405180910390f35b610343600480360381019061033e91906124c6565b610a39565b6040516103509190612635565b60405180910390f35b610361610af3565b005b61036b610b07565b005b610375610b19565b60405161038291906122c1565b60405180910390f35b610393610b43565b6040516103a091906121fb565b60405180910390f35b6103c360048036038101906103be919061267c565b610bd5565b005b6103df60048036038101906103da919061275d565b610beb565b005b6103fb60048036038101906103f69190612253565b610c10565b60405161040891906121fb565b60405180910390f35b61042b600480360381019061042691906127e0565b610c22565b6040516104389190612150565b60405180910390f35b61045b600480360381019061045691906124c6565b610cb6565b005b600061046882610d3c565b9050919050565b60606000805461047e9061284f565b80601f01602080910402602001604051908101604052809291908181526020018280546104aa9061284f565b80156104f75780601f106104cc576101008083540402835291602001916104f7565b820191906000526020600020905b8154815290600101906020018083116104da57829003601f168201915b5050505050905090565b600061050c82610d9d565b5061051682610e25565b9050919050565b61052f828261052a610e62565b610e6a565b5050565b61053b610e7c565b806009908161054a9190612a2c565b5050565b6060600061055b83610a39565b905060008167ffffffffffffffff81111561057957610578612352565b5b6040519080825280602002602001820160405280156105a75781602001602082028036833780820191505090505b509050600080600854905060005b818110156106b3573073ffffffffffffffffffffffffffffffffffffffff16636352211e826040518263ffffffff1660e01b81526004016105f69190612635565b602060405180830381865afa92505050801561063057506040513d601f19601f8201168201806040525081019061062d9190612b13565b60015b156106a6578773ffffffffffffffffffffffffffffffffffffffff168173ffffffffffffffffffffffffffffffffffffffff16036106a4578185858151811061067c5761067b612b40565b5b602002602001018181525050838061069390612b9e565b9450508584036106a357506106b3565b5b505b80806001019150506105b5565b5082945050505050919050565b600073ffffffffffffffffffffffffffffffffffffffff168273ffffffffffffffffffffffffffffffffffffffff16036107325760006040517f64a0ae9200000000000000000000000000000000000000000000000000000000815260040161072991906122c1565b60405180910390fd5b60006107468383610741610e62565b610f03565b90508373ffffffffffffffffffffffffffffffffffffffff168173ffffffffffffffffffffffffffffffffffffffff16146107bc578382826040517f64283d7b0000000000000000000000000000000000000000000000000000000081526004016107b393929190612be6565b60405180910390fd5b50505050565b600a6020528060005260406000206000915054906101000a900460ff1681565b6107ea610e7c565b6107f2610f19565b565b600a60003373ffffffffffffffffffffffffffffffffffffffff1673ffffffffffffffffffffffffffffffffffffffff16815260200190815260200160002060009054906101000a900460ff1615610881576040517f08c379a000000000000000000000000000000000000000000000000000000000815260040161087890612c69565b60405180910390fd5b60006008600081548092919061089690612b9e565b9190505590506108a63382610f7c565b61093a81600980546108b79061284f565b80601f01602080910402602001604051908101604052809291908181526020018280546108e39061284f565b80156109305780601f1061090557610100808354040283529160200191610930565b820191906000526020600020905b81548152906001019060200180831161091357829003601f168201915b5050505050610f9a565b6001600a60003373ffffffffffffffffffffffffffffffffffffffff1673ffffffffffffffffffffffffffffffffffffffff16815260200190815260200160002060006101000a81548160ff021916908315150217905550803373ffffffffffffffffffffffffffffffffffffffff167f939def1dea692c5e86f82d85507c8d5d21e73c274cdfda87bda0d6f3eb178b2760405160405180910390a350565b6109f483838360405180602001604052806000815250610beb565b505050565b610a0c600082610a07610e62565b610f03565b5050565b6000600760009054906101000a900460ff16905090565b6000610a3282610d9d565b9050919050565b60008073ffffffffffffffffffffffffffffffffffffffff168273ffffffffffffffffffffffffffffffffffffffff1603610aac5760006040517f89c62b64000000000000000000000000000000000000000000000000000000008152600401610aa391906122c1565b60405180910390fd5b600360008373ffffffffffffffffffffffffffffffffffffffff1673ffffffffffffffffffffffffffffffffffffffff168152602001908152602001600020549050919050565b610afb610e7c565b610b056000610ff6565b565b610b0f610e7c565b610b176110bc565b565b6000600760019054906101000a900473ffffffffffffffffffffffffffffffffffffffff16905090565b606060018054610b529061284f565b80601f0160208091040260200160405190810160405280929190818152602001828054610b7e9061284f565b8015610bcb5780601f10610ba057610100808354040283529160200191610bcb565b820191906000526020600020905b815481529060010190602001808311610bae57829003601f168201915b5050505050905090565b610be7610be0610e62565b838361111f565b5050565b610bf68484846106c0565b610c0a610c01610e62565b8585858561128e565b50505050565b6060610c1b8261143f565b9050919050565b6000600560008473ffffffffffffffffffffffffffffffffffffffff1673ffffffffffffffffffffffffffffffffffffffff16815260200190815260200160002060008373ffffffffffffffffffffffffffffffffffffffff1673ffffffffffffffffffffffffffffffffffffffff16815260200190815260200160002060009054906101000a900460ff16905092915050565b610cbe610e7c565b600073ffffffffffffffffffffffffffffffffffffffff168173ffffffffffffffffffffffffffffffffffffffff1603610d305760006040517f1e4fbdf7000000000000000000000000000000000000000000000000000000008152600401610d2791906122c1565b60405180910390fd5b610d3981610ff6565b50565b6000634906490660e01b7bffffffffffffffffffffffffffffffffffffffffffffffffffffffff1916827bffffffffffffffffffffffffffffffffffffffffffffffffffffffff19161480610d965750610d9582611552565b5b9050919050565b600080610da983611634565b9050600073ffffffffffffffffffffffffffffffffffffffff168173ffffffffffffffffffffffffffffffffffffffff1603610e1c57826040517f7e273289000000000000000000000000000000000000000000000000000000008152600401610e139190612635565b60405180910390fd5b80915050919050565b60006004600083815260200190815260200160002060009054906101000a900473ffffffffffffffffffffffffffffffffffffffff169050919050565b600033905090565b610e778383836001611671565b505050565b610e84610e62565b73ffffffffffffffffffffffffffffffffffffffff16610ea2610b19565b73ffffffffffffffffffffffffffffffffffffffff1614610f0157610ec5610e62565b6040517f118cdaa7000000000000000000000000000000000000000000000000000000008152600401610ef891906122c1565b60405180910390fd5b565b6000610f10848484611836565b90509392505050565b610f21611854565b6000600760006101000a81548160ff0219169083151502179055507f5db9ee0a495bf2e6ff9c91a7834c1ba4fdd244a5e8aa4e537bd38aeae4b073aa610f65610e62565b604051610f7291906122c1565b60405180910390a1565b610f96828260405180602001604052806000815250611894565b5050565b80600660008481526020019081526020016000209081610fba9190612a2c565b507ff8e1a15aba9398e019f0b49df1a4fde98ee17ae345cb5f6b5e2c27f5033e8ce782604051610fea9190612635565b60405180910390a15050565b6000600760019054906101000a900473ffffffffffffffffffffffffffffffffffffffff16905081600760016101000a81548173ffffffffffffffffffffffffffffffffffffffff021916908373ffffffffffffffffffffffffffffffffffffffff1602179055508173ffffffffffffffffffffffffffffffffffffffff168173ffffffffffffffffffffffffffffffffffffffff167f8be0079c531659141344cd1fd0a4f28419497f9722a3daafe3b4186f6b6457e060405160405180910390a35050565b6110c46118b8565b6001600760006101000a81548160ff0219169083151502179055507f62e78cea01bee320cd4e420270b5ea74000d11b0c9f74754ebdbfc544b05a258611108610e62565b60405161111591906122c1565b60405180910390a1565b600073ffffffffffffffffffffffffffffffffffffffff168273ffffffffffffffffffffffffffffffffffffffff160361119057816040517f5b08ba1800000000000000000000000000000000000000000000000000000000815260040161118791906122c1565b60405180910390fd5b80600560008573ffffffffffffffffffffffffffffffffffffffff1673ffffffffffffffffffffffffffffffffffffffff16815260200190815260200160002060008473ffffffffffffffffffffffffffffffffffffffff1673ffffffffffffffffffffffffffffffffffffffff16815260200190815260200160002060006101000a81548160ff0219169083151502179055508173ffffffffffffffffffffffffffffffffffffffff168373ffffffffffffffffffffffffffffffffffffffff167f17307eab39ab6107e8899845ad3d59bd9653f200f220920489ca2b5937696c31836040516112819190612150565b60405180910390a3505050565b60008373ffffffffffffffffffffffffffffffffffffffff163b1115611438578273ffffffffffffffffffffffffffffffffffffffff1663150b7a02868685856040518563ffffffff1660e01b81526004016112ed9493929190612cde565b6020604051808303816000875af192505050801561132957506040513d601f19601f820116820180604052508101906113269190612d3f565b60015b6113ad573d8060008114611359576040519150601f19603f3d011682016040523d82523d6000602084013e61135e565b606091505b5060008151036113a557836040517f64a0ae9200000000000000000000000000000000000000000000000000000000815260040161139c91906122c1565b60405180910390fd5b805181602001fd5b63150b7a0260e01b7bffffffffffffffffffffffffffffffffffffffffffffffffffffffff1916817bffffffffffffffffffffffffffffffffffffffffffffffffffffffff19161461143657836040517f64a0ae9200000000000000000000000000000000000000000000000000000000815260040161142d91906122c1565b60405180910390fd5b505b5050505050565b606061144a82610d9d565b50600060066000848152602001908152602001600020805461146b9061284f565b80601f01602080910402602001604051908101604052809291908181526020018280546114979061284f565b80156114e45780601f106114b9576101008083540402835291602001916114e4565b820191906000526020600020905b8154815290600101906020018083116114c757829003601f168201915b5050505050905060006114f56118f9565b9050600081510361150a57819250505061154d565b60008251111561153f578082604051602001611527929190612da8565b6040516020818303038152906040529250505061154d565b61154884611910565b925050505b919050565b60007f80ac58cd000000000000000000000000000000000000000000000000000000007bffffffffffffffffffffffffffffffffffffffffffffffffffffffff1916827bffffffffffffffffffffffffffffffffffffffffffffffffffffffff1916148061161d57507f5b5e139f000000000000000000000000000000000000000000000000000000007bffffffffffffffffffffffffffffffffffffffffffffffffffffffff1916827bffffffffffffffffffffffffffffffffffffffffffffffffffffffff1916145b8061162d575061162c82611979565b5b9050919050565b60006002600083815260200190815260200160002060009054906101000a900473ffffffffffffffffffffffffffffffffffffffff169050919050565b80806116aa5750600073ffffffffffffffffffffffffffffffffffffffff168273ffffffffffffffffffffffffffffffffffffffff1614155b156117de5760006116ba84610d9d565b9050600073ffffffffffffffffffffffffffffffffffffffff168373ffffffffffffffffffffffffffffffffffffffff161415801561172557508273ffffffffffffffffffffffffffffffffffffffff168173ffffffffffffffffffffffffffffffffffffffff1614155b801561173857506117368184610c22565b155b1561177a57826040517fa9fbf51f00000000000000000000000000000000000000000000000000000000815260040161177191906122c1565b60405180910390fd5b81156117dc57838573ffffffffffffffffffffffffffffffffffffffff168273ffffffffffffffffffffffffffffffffffffffff167f8c5be1e5ebec7d5bd14f71427d1e84f3dd0314c0f7b2291e5b200ac8c7c3b92560405160405180910390a45b505b836004600085815260200190815260200160002060006101000a81548173ffffffffffffffffffffffffffffffffffffffff021916908373ffffffffffffffffffffffffffffffffffffffff16021790555050505050565b60006118406118b8565b61184b8484846119e3565b90509392505050565b61185c610a10565b611892576040517f8dfc202b00000000000000000000000000000000000000000000000000000000815260040160405180910390fd5b565b61189e8383611bfd565b6118b36118a9610e62565b600085858561128e565b505050565b6118c0610a10565b156118f7576040517fd93c066500000000000000000000000000000000000000000000000000000000815260040160405180910390fd5b565b606060405180602001604052806000815250905090565b606061191b82610d9d565b5060006119266118f9565b905060008151116119465760405180602001604052806000815250611971565b8061195084611cf6565b604051602001611961929190612da8565b6040516020818303038152906040525b915050919050565b60007f01ffc9a7000000000000000000000000000000000000000000000000000000007bffffffffffffffffffffffffffffffffffffffffffffffffffffffff1916827bffffffffffffffffffffffffffffffffffffffffffffffffffffffff1916149050919050565b6000806119ef84611634565b9050600073ffffffffffffffffffffffffffffffffffffffff168373ffffffffffffffffffffffffffffffffffffffff1614611a3157611a30818486611dc4565b5b600073ffffffffffffffffffffffffffffffffffffffff168173ffffffffffffffffffffffffffffffffffffffff1614611ac257611a73600085600080611671565b6001600360008373ffffffffffffffffffffffffffffffffffffffff1673ffffffffffffffffffffffffffffffffffffffff168152602001908152602001600020600082825403925050819055505b600073ffffffffffffffffffffffffffffffffffffffff168573ffffffffffffffffffffffffffffffffffffffff1614611b45576001600360008773ffffffffffffffffffffffffffffffffffffffff1673ffffffffffffffffffffffffffffffffffffffff168152602001908152602001600020600082825401925050819055505b846002600086815260200190815260200160002060006101000a81548173ffffffffffffffffffffffffffffffffffffffff021916908373ffffffffffffffffffffffffffffffffffffffff160217905550838573ffffffffffffffffffffffffffffffffffffffff168273ffffffffffffffffffffffffffffffffffffffff167fddf252ad1be2c89b69c2b068fc378daa952ba7f163c4a11628f55a4df523b3ef60405160405180910390a4809150509392505050565b600073ffffffffffffffffffffffffffffffffffffffff168273ffffffffffffffffffffffffffffffffffffffff1603611c6f5760006040517f64a0ae92000000000000000000000000000000000000000000000000000000008152600401611c6691906122c1565b60405180910390fd5b6000611c7d83836000610f03565b9050600073ffffffffffffffffffffffffffffffffffffffff168173ffffffffffffffffffffffffffffffffffffffff1614611cf15760006040517f73c6ac6e000000000000000000000000000000000000000000000000000000008152600401611ce891906122c1565b60405180910390fd5b505050565b606060006001611d0584611e88565b01905060008167ffffffffffffffff811115611d2457611d23612352565b5b6040519080825280601f01601f191660200182016040528015611d565781602001600182028036833780820191505090505b509050600082602001820190505b600115611db9578080600190039150507f3031323334353637383961626364656600000000000000000000000000000000600a86061a8153600a8581611dad57611dac612dcc565b5b04945060008503611d64575b819350505050919050565b611dcf838383611fdb565b611e8357600073ffffffffffffffffffffffffffffffffffffffff168373ffffffffffffffffffffffffffffffffffffffff1603611e4457806040517f7e273289000000000000000000000000000000000000000000000000000000008152600401611e3b9190612635565b60405180910390fd5b81816040517f177e802f000000000000000000000000000000000000000000000000000000008152600401611e7a929190612dfb565b60405180910390fd5b505050565b600080600090507a184f03e93ff9f4daa797ed6e38ed64bf6a1f0100000000000000008310611ee6577a184f03e93ff9f4daa797ed6e38ed64bf6a1f0100000000000000008381611edc57611edb612dcc565b5b0492506040810190505b6d04ee2d6d415b85acef81000000008310611f23576d04ee2d6d415b85acef81000000008381611f1957611f18612dcc565b5b0492506020810190505b662386f26fc100008310611f5257662386f26fc100008381611f4857611f47612dcc565b5b0492506010810190505b6305f5e1008310611f7b576305f5e1008381611f7157611f70612dcc565b5b0492506008810190505b6127108310611fa0576127108381611f9657611f95612dcc565b5b0492506004810190505b60648310611fc35760648381611fb957611fb8612dcc565b5b0492506002810190505b600a8310611fd2576001810190505b80915050919050565b60008073ffffffffffffffffffffffffffffffffffffffff168373ffffffffffffffffffffffffffffffffffffffff161415801561209357508273ffffffffffffffffffffffffffffffffffffffff168473ffffffffffffffffffffffffffffffffffffffff16148061205457506120538484610c22565b5b8061209257508273ffffffffffffffffffffffffffffffffffffffff1661207a83610e25565b73ffffffffffffffffffffffffffffffffffffffff16145b5b90509392505050565b6000604051905090565b600080fd5b600080fd5b60007fffffffff0000000000000000000000000000000000000000000000000000000082169050919050565b6120e5816120b0565b81146120f057600080fd5b50565b600081359050612102816120dc565b92915050565b60006020828403121561211e5761211d6120a6565b5b600061212c848285016120f3565b91505092915050565b60008115159050919050565b61214a81612135565b82525050565b60006020820190506121656000830184612141565b92915050565b600081519050919050565b600082825260208201905092915050565b60005b838110156121a557808201518184015260208101905061218a565b60008484015250505050565b6000601f19601f8301169050919050565b60006121cd8261216b565b6121d78185612176565b93506121e7818560208601612187565b6121f0816121b1565b840191505092915050565b6000602082019050818103600083015261221581846121c2565b905092915050565b6000819050919050565b6122308161221d565b811461223b57600080fd5b50565b60008135905061224d81612227565b92915050565b600060208284031215612269576122686120a6565b5b60006122778482850161223e565b91505092915050565b600073ffffffffffffffffffffffffffffffffffffffff82169050919050565b60006122ab82612280565b9050919050565b6122bb816122a0565b82525050565b60006020820190506122d660008301846122b2565b92915050565b6122e5816122a0565b81146122f057600080fd5b50565b600081359050612302816122dc565b92915050565b6000806040838503121561231f5761231e6120a6565b5b600061232d858286016122f3565b925050602061233e8582860161223e565b9150509250929050565b600080fd5b600080fd5b7f4e487b7100000000000000000000000000000000000000000000000000000000600052604160045260246000fd5b61238a826121b1565b810181811067ffffffffffffffff821117156123a9576123a8612352565b5b80604052505050565b60006123bc61209c565b90506123c88282612381565b919050565b600067ffffffffffffffff8211156123e8576123e7612352565b5b6123f1826121b1565b9050602081019050919050565b82818337600083830152505050565b600061242061241b846123cd565b6123b2565b90508281526020810184848401111561243c5761243b61234d565b5b6124478482856123fe565b509392505050565b600082601f83011261246457612463612348565b5b813561247484826020860161240d565b91505092915050565b600060208284031215612493576124926120a6565b5b600082013567ffffffffffffffff8111156124b1576124b06120ab565b5b6124bd8482850161244f565b91505092915050565b6000602082840312156124dc576124db6120a6565b5b60006124ea848285016122f3565b91505092915050565b600081519050919050565b600082825260208201905092915050565b6000819050602082019050919050565b6125288161221d565b82525050565b600061253a838361251f565b60208301905092915050565b6000602082019050919050565b600061255e826124f3565b61256881856124fe565b93506125738361250f565b8060005b838110156125a457815161258b888261252e565b975061259683612546565b925050600181019050612577565b5085935050505092915050565b600060208201905081810360008301526125cb8184612553565b905092915050565b6000806000606084860312156125ec576125eb6120a6565b5b60006125fa868287016122f3565b935050602061260b868287016122f3565b925050604061261c8682870161223e565b9150509250925092565b61262f8161221d565b82525050565b600060208201905061264a6000830184612626565b92915050565b61265981612135565b811461266457600080fd5b50565b60008135905061267681612650565b92915050565b60008060408385031215612693576126926120a6565b5b60006126a1858286016122f3565b92505060206126b285828601612667565b9150509250929050565b600067ffffffffffffffff8211156126d7576126d6612352565b5b6126e0826121b1565b9050602081019050919050565b60006127006126fb846126bc565b6123b2565b90508281526020810184848401111561271c5761271b61234d565b5b6127278482856123fe565b509392505050565b600082601f83011261274457612743612348565b5b81356127548482602086016126ed565b91505092915050565b60008060008060808587031215612777576127766120a6565b5b6000612785878288016122f3565b9450506020612796878288016122f3565b93505060406127a78782880161223e565b925050606085013567ffffffffffffffff8111156127c8576127c76120ab565b5b6127d48782880161272f565b91505092959194509250565b600080604083850312156127f7576127f66120a6565b5b6000612805858286016122f3565b9250506020612816858286016122f3565b9150509250929050565b7f4e487b7100000000000000000000000000000000000000000000000000000000600052602260045260246000fd5b6000600282049050600182168061286757607f821691505b60208210810361287a57612879612820565b5b50919050565b60008190508160005260206000209050919050565b60006020601f8301049050919050565b600082821b905092915050565b6000600883026128e27fffffffffffffffffffffffffffffffffffffffffffffffffffffffffffffffff826128a5565b6128ec86836128a5565b95508019841693508086168417925050509392505050565b6000819050919050565b600061292961292461291f8461221d565b612904565b61221d565b9050919050565b6000819050919050565b6129438361290e565b61295761294f82612930565b8484546128b2565b825550505050565b600090565b61296c61295f565b61297781848461293a565b505050565b5b8181101561299b57612990600082612964565b60018101905061297d565b5050565b601f8211156129e0576129b181612880565b6129ba84612895565b810160208510156129c9578190505b6129dd6129d585612895565b83018261297c565b50505b505050565b600082821c905092915050565b6000612a03600019846008026129e5565b1980831691505092915050565b6000612a1c83836129f2565b9150826002028217905092915050565b612a358261216b565b67ffffffffffffffff811115612a4e57612a4d612352565b5b612a58825461284f565b612a6382828561299f565b600060209050601f831160018114612a965760008415612a84578287015190505b612a8e8582612a10565b865550612af6565b601f198416612aa486612880565b60005b82811015612acc57848901518255600182019150602085019450602081019050612aa7565b86831015612ae95784890151612ae5601f8916826129f2565b8355505b6001600288020188555050505b505050505050565b600081519050612b0d816122dc565b92915050565b600060208284031215612b2957612b286120a6565b5b6000612b3784828501612afe565b91505092915050565b7f4e487b7100000000000000000000000000000000000000000000000000000000600052603260045260246000fd5b7f4e487b7100000000000000000000000000000000000000000000000000000000600052601160045260246000fd5b6000612ba98261221d565b91507fffffffffffffffffffffffffffffffffffffffffffffffffffffffffffffffff8203612bdb57612bda612b6f565b5b600182019050919050565b6000606082019050612bfb60008301866122b2565b612c086020830185612626565b612c1560408301846122b2565b949350505050565b7f416c7265616479206d696e746564000000000000000000000000000000000000600082015250565b6000612c53600e83612176565b9150612c5e82612c1d565b602082019050919050565b60006020820190508181036000830152612c8281612c46565b9050919050565b600081519050919050565b600082825260208201905092915050565b6000612cb082612c89565b612cba8185612c94565b9350612cca818560208601612187565b612cd3816121b1565b840191505092915050565b6000608082019050612cf360008301876122b2565b612d0060208301866122b2565b612d0d6040830185612626565b8181036060830152612d1f8184612ca5565b905095945050505050565b600081519050612d39816120dc565b92915050565b600060208284031215612d5557612d546120a6565b5b6000612d6384828501612d2a565b91505092915050565b600081905092915050565b6000612d828261216b565b612d8c8185612d6c565b9350612d9c818560208601612187565b80840191505092915050565b6000612db48285612d77565b9150612dc08284612d77565b91508190509392505050565b7f4e487b7100000000000000000000000000000000000000000000000000000000600052601260045260246000fd5b6000604082019050612e1060008301856122b2565b612e1d6020830184612626565b939250505056fea264697066735822122009e4089f26bd5305ab9f814d81b454fd7ea98996d9f66f6fdd56b87bc62d924964736f6c63430008180033697066733a2f2f6261666b72656964327774763635696665327a6b32776963346578666e357768786b34676379346c793479626676787579776a74766d6970733265",
  "linkReferences": {},
  "deployedLinkReferences": {}
}